Archive member included because of file (symbol)

g:/arquivos de programas/codesourcery/sourcery g++ lite/bin/../lib/gcc/arm-none-eabi/4.4.1/../../../../arm-none-eabi/lib/thumb2\libc.a(lib_a-vsprintf.o)
                              usbhost_uart.o (vsprintf)
g:/arquivos de programas/codesourcery/sourcery g++ lite/bin/../lib/gcc/arm-none-eabi/4.4.1/../../../../arm-none-eabi/lib/thumb2\libc.a(lib_a-impure.o)
                              g:/arquivos de programas/codesourcery/sourcery g++ lite/bin/../lib/gcc/arm-none-eabi/4.4.1/../../../../arm-none-eabi/lib/thumb2\libc.a(lib_a-vsprintf.o) (_impure_ptr)
g:/arquivos de programas/codesourcery/sourcery g++ lite/bin/../lib/gcc/arm-none-eabi/4.4.1/../../../../arm-none-eabi/lib/thumb2\libc.a(lib_a-svfprintf.o)
                              g:/arquivos de programas/codesourcery/sourcery g++ lite/bin/../lib/gcc/arm-none-eabi/4.4.1/../../../../arm-none-eabi/lib/thumb2\libc.a(lib_a-vsprintf.o) (_svfprintf_r)
g:/arquivos de programas/codesourcery/sourcery g++ lite/bin/../lib/gcc/arm-none-eabi/4.4.1/../../../../arm-none-eabi/lib/thumb2\libc.a(lib_a-dtoa.o)
                              g:/arquivos de programas/codesourcery/sourcery g++ lite/bin/../lib/gcc/arm-none-eabi/4.4.1/../../../../arm-none-eabi/lib/thumb2\libc.a(lib_a-svfprintf.o) (_dtoa_r)
g:/arquivos de programas/codesourcery/sourcery g++ lite/bin/../lib/gcc/arm-none-eabi/4.4.1/../../../../arm-none-eabi/lib/thumb2\libc.a(lib_a-freer.o)
                              g:/arquivos de programas/codesourcery/sourcery g++ lite/bin/../lib/gcc/arm-none-eabi/4.4.1/../../../../arm-none-eabi/lib/thumb2\libc.a(lib_a-svfprintf.o) (_free_r)
g:/arquivos de programas/codesourcery/sourcery g++ lite/bin/../lib/gcc/arm-none-eabi/4.4.1/../../../../arm-none-eabi/lib/thumb2\libc.a(lib_a-locale.o)
                              g:/arquivos de programas/codesourcery/sourcery g++ lite/bin/../lib/gcc/arm-none-eabi/4.4.1/../../../../arm-none-eabi/lib/thumb2\libc.a(lib_a-svfprintf.o) (_localeconv_r)
g:/arquivos de programas/codesourcery/sourcery g++ lite/bin/../lib/gcc/arm-none-eabi/4.4.1/../../../../arm-none-eabi/lib/thumb2\libc.a(lib_a-malloc.o)
                              g:/arquivos de programas/codesourcery/sourcery g++ lite/bin/../lib/gcc/arm-none-eabi/4.4.1/../../../../arm-none-eabi/lib/thumb2\libc.a(lib_a-dtoa.o) (malloc)
g:/arquivos de programas/codesourcery/sourcery g++ lite/bin/../lib/gcc/arm-none-eabi/4.4.1/../../../../arm-none-eabi/lib/thumb2\libc.a(lib_a-mallocr.o)
                              g:/arquivos de programas/codesourcery/sourcery g++ lite/bin/../lib/gcc/arm-none-eabi/4.4.1/../../../../arm-none-eabi/lib/thumb2\libc.a(lib_a-svfprintf.o) (_malloc_r)
g:/arquivos de programas/codesourcery/sourcery g++ lite/bin/../lib/gcc/arm-none-eabi/4.4.1/../../../../arm-none-eabi/lib/thumb2\libc.a(lib_a-memchr.o)
                              g:/arquivos de programas/codesourcery/sourcery g++ lite/bin/../lib/gcc/arm-none-eabi/4.4.1/../../../../arm-none-eabi/lib/thumb2\libc.a(lib_a-svfprintf.o) (memchr)
g:/arquivos de programas/codesourcery/sourcery g++ lite/bin/../lib/gcc/arm-none-eabi/4.4.1/../../../../arm-none-eabi/lib/thumb2\libc.a(lib_a-memcpy.o)
                              g:/arquivos de programas/codesourcery/sourcery g++ lite/bin/../lib/gcc/arm-none-eabi/4.4.1/../../../../arm-none-eabi/lib/thumb2\libc.a(lib_a-svfprintf.o) (memcpy)
g:/arquivos de programas/codesourcery/sourcery g++ lite/bin/../lib/gcc/arm-none-eabi/4.4.1/../../../../arm-none-eabi/lib/thumb2\libc.a(lib_a-memmove.o)
                              g:/arquivos de programas/codesourcery/sourcery g++ lite/bin/../lib/gcc/arm-none-eabi/4.4.1/../../../../arm-none-eabi/lib/thumb2\libc.a(lib_a-svfprintf.o) (memmove)
g:/arquivos de programas/codesourcery/sourcery g++ lite/bin/../lib/gcc/arm-none-eabi/4.4.1/../../../../arm-none-eabi/lib/thumb2\libc.a(lib_a-mlock.o)
                              g:/arquivos de programas/codesourcery/sourcery g++ lite/bin/../lib/gcc/arm-none-eabi/4.4.1/../../../../arm-none-eabi/lib/thumb2\libc.a(lib_a-freer.o) (__malloc_lock)
g:/arquivos de programas/codesourcery/sourcery g++ lite/bin/../lib/gcc/arm-none-eabi/4.4.1/../../../../arm-none-eabi/lib/thumb2\libc.a(lib_a-mprec.o)
                              g:/arquivos de programas/codesourcery/sourcery g++ lite/bin/../lib/gcc/arm-none-eabi/4.4.1/../../../../arm-none-eabi/lib/thumb2\libc.a(lib_a-dtoa.o) (__hi0bits)
g:/arquivos de programas/codesourcery/sourcery g++ lite/bin/../lib/gcc/arm-none-eabi/4.4.1/../../../../arm-none-eabi/lib/thumb2\libc.a(lib_a-reallocr.o)
                              g:/arquivos de programas/codesourcery/sourcery g++ lite/bin/../lib/gcc/arm-none-eabi/4.4.1/../../../../arm-none-eabi/lib/thumb2\libc.a(lib_a-svfprintf.o) (_realloc_r)
g:/arquivos de programas/codesourcery/sourcery g++ lite/bin/../lib/gcc/arm-none-eabi/4.4.1/../../../../arm-none-eabi/lib/thumb2\libc.a(lib_a-s_isinfd.o)
                              g:/arquivos de programas/codesourcery/sourcery g++ lite/bin/../lib/gcc/arm-none-eabi/4.4.1/../../../../arm-none-eabi/lib/thumb2\libc.a(lib_a-svfprintf.o) (__isinfd)
g:/arquivos de programas/codesourcery/sourcery g++ lite/bin/../lib/gcc/arm-none-eabi/4.4.1/../../../../arm-none-eabi/lib/thumb2\libc.a(lib_a-s_isnand.o)
                              g:/arquivos de programas/codesourcery/sourcery g++ lite/bin/../lib/gcc/arm-none-eabi/4.4.1/../../../../arm-none-eabi/lib/thumb2\libc.a(lib_a-svfprintf.o) (__isnand)
g:/arquivos de programas/codesourcery/sourcery g++ lite/bin/../lib/gcc/arm-none-eabi/4.4.1/../../../../arm-none-eabi/lib/thumb2\libc.a(lib_a-sbrkr.o)
                              g:/arquivos de programas/codesourcery/sourcery g++ lite/bin/../lib/gcc/arm-none-eabi/4.4.1/../../../../arm-none-eabi/lib/thumb2\libc.a(lib_a-freer.o) (_sbrk_r)
g:/arquivos de programas/codesourcery/sourcery g++ lite/bin/../lib/gcc/arm-none-eabi/4.4.1/../../../../arm-none-eabi/lib/thumb2\libc.a(lib_a-strcmp.o)
                              g:/arquivos de programas/codesourcery/sourcery g++ lite/bin/../lib/gcc/arm-none-eabi/4.4.1/../../../../arm-none-eabi/lib/thumb2\libc.a(lib_a-locale.o) (strcmp)
g:/arquivos de programas/codesourcery/sourcery g++ lite/bin/../lib/gcc/arm-none-eabi/4.4.1/../../../../arm-none-eabi/lib/thumb2\libc.a(lib_a-strlen.o)
                              g:/arquivos de programas/codesourcery/sourcery g++ lite/bin/../lib/gcc/arm-none-eabi/4.4.1/../../../../arm-none-eabi/lib/thumb2\libc.a(lib_a-svfprintf.o) (strlen)
g:/arquivos de programas/codesourcery/sourcery g++ lite/bin/../lib/gcc/arm-none-eabi/4.4.1/../../../../arm-none-eabi/lib/thumb2\libc.a(lib_a-callocr.o)
                              g:/arquivos de programas/codesourcery/sourcery g++ lite/bin/../lib/gcc/arm-none-eabi/4.4.1/../../../../arm-none-eabi/lib/thumb2\libc.a(lib_a-mprec.o) (_calloc_r)
g:/arquivos de programas/codesourcery/sourcery g++ lite/bin/../lib/gcc/arm-none-eabi/4.4.1/../../../../arm-none-eabi/lib/thumb2\libc.a(lib_a-memset.o)
                              g:/arquivos de programas/codesourcery/sourcery g++ lite/bin/../lib/gcc/arm-none-eabi/4.4.1/../../../../arm-none-eabi/lib/thumb2\libc.a(lib_a-callocr.o) (memset)
g:/arquivos de programas/codesourcery/sourcery g++ lite/bin/../lib/gcc/arm-none-eabi/4.4.1/../../../../arm-none-eabi/lib/thumb2\libc.a(lib_a-reent.o)
                              g:/arquivos de programas/codesourcery/sourcery g++ lite/bin/../lib/gcc/arm-none-eabi/4.4.1/../../../../arm-none-eabi/lib/thumb2\libc.a(lib_a-sbrkr.o) (errno)
g:/arquivos de programas/codesourcery/sourcery g++ lite/bin/../lib/gcc/arm-none-eabi/4.4.1/thumb2\libgcc.a(_udivsi3.o)
                              g:/arquivos de programas/codesourcery/sourcery g++ lite/bin/../lib/gcc/arm-none-eabi/4.4.1/../../../../arm-none-eabi/lib/thumb2\libc.a(lib_a-dtoa.o) (__aeabi_uidiv)
g:/arquivos de programas/codesourcery/sourcery g++ lite/bin/../lib/gcc/arm-none-eabi/4.4.1/thumb2\libgcc.a(_dvmd_tls.o)
                              g:/arquivos de programas/codesourcery/sourcery g++ lite/bin/../lib/gcc/arm-none-eabi/4.4.1/thumb2\libgcc.a(_udivsi3.o) (__aeabi_idiv0)
g:/arquivos de programas/codesourcery/sourcery g++ lite/bin/../lib/gcc/arm-none-eabi/4.4.1/thumb2\libgcc.a(_arm_addsubdf3.o)
                              g:/arquivos de programas/codesourcery/sourcery g++ lite/bin/../lib/gcc/arm-none-eabi/4.4.1/../../../../arm-none-eabi/lib/thumb2\libc.a(lib_a-dtoa.o) (__aeabi_dsub)
g:/arquivos de programas/codesourcery/sourcery g++ lite/bin/../lib/gcc/arm-none-eabi/4.4.1/thumb2\libgcc.a(_arm_muldivdf3.o)
                              g:/arquivos de programas/codesourcery/sourcery g++ lite/bin/../lib/gcc/arm-none-eabi/4.4.1/../../../../arm-none-eabi/lib/thumb2\libc.a(lib_a-dtoa.o) (__aeabi_dmul)
g:/arquivos de programas/codesourcery/sourcery g++ lite/bin/../lib/gcc/arm-none-eabi/4.4.1/thumb2\libgcc.a(_arm_cmpdf2.o)
                              g:/arquivos de programas/codesourcery/sourcery g++ lite/bin/../lib/gcc/arm-none-eabi/4.4.1/../../../../arm-none-eabi/lib/thumb2\libc.a(lib_a-svfprintf.o) (__aeabi_dcmpeq)
g:/arquivos de programas/codesourcery/sourcery g++ lite/bin/../lib/gcc/arm-none-eabi/4.4.1/thumb2\libgcc.a(_arm_fixdfsi.o)
                              g:/arquivos de programas/codesourcery/sourcery g++ lite/bin/../lib/gcc/arm-none-eabi/4.4.1/../../../../arm-none-eabi/lib/thumb2\libc.a(lib_a-dtoa.o) (__aeabi_d2iz)
g:/arquivos de programas/codesourcery/sourcery g++ lite/bin/../lib/gcc/arm-none-eabi/4.4.1/thumb2\libgcc.a(_aeabi_uldivmod.o)
                              g:/arquivos de programas/codesourcery/sourcery g++ lite/bin/../lib/gcc/arm-none-eabi/4.4.1/../../../../arm-none-eabi/lib/thumb2\libc.a(lib_a-svfprintf.o) (__aeabi_uldivmod)
g:/arquivos de programas/codesourcery/sourcery g++ lite/bin/../lib/gcc/arm-none-eabi/4.4.1/thumb2\libgcc.a(bpabi.o)
                              g:/arquivos de programas/codesourcery/sourcery g++ lite/bin/../lib/gcc/arm-none-eabi/4.4.1/thumb2\libgcc.a(_aeabi_uldivmod.o) (__gnu_uldivmod_helper)
g:/arquivos de programas/codesourcery/sourcery g++ lite/bin/../lib/gcc/arm-none-eabi/4.4.1/thumb2\libgcc.a(_divdi3.o)
                              g:/arquivos de programas/codesourcery/sourcery g++ lite/bin/../lib/gcc/arm-none-eabi/4.4.1/thumb2\libgcc.a(bpabi.o) (__divdi3)
g:/arquivos de programas/codesourcery/sourcery g++ lite/bin/../lib/gcc/arm-none-eabi/4.4.1/thumb2\libgcc.a(_udivdi3.o)
                              g:/arquivos de programas/codesourcery/sourcery g++ lite/bin/../lib/gcc/arm-none-eabi/4.4.1/thumb2\libgcc.a(bpabi.o) (__udivdi3)

Allocating common symbols
Common symbol       size              file

errno               0x4               g:/arquivos de programas/codesourcery/sourcery g++ lite/bin/../lib/gcc/arm-none-eabi/4.4.1/../../../../arm-none-eabi/lib/thumb2\libc.a(lib_a-reent.o)

Memory Configuration

Name             Origin             Length             Attributes
rom              0x00000000         0x00080000         xr
ram              0x10000000         0x00008000         xrw
*default*        0x00000000         0xffffffff

Linker script and memory map

LOAD startup_LPC17xx.o
LOAD core_cm3.o
LOAD system_LPC17xx.o
LOAD main.o
LOAD syscalls.o
LOAD usbhost_fat.o
LOAD usbhost_lpc17xx.o
LOAD usbhost_ms.o
LOAD usbhost_uart.o
START GROUP
LOAD g:/arquivos de programas/codesourcery/sourcery g++ lite/bin/../lib/gcc/arm-none-eabi/4.4.1/thumb2\libgcc.a
LOAD g:/arquivos de programas/codesourcery/sourcery g++ lite/bin/../lib/gcc/arm-none-eabi/4.4.1/../../../../arm-none-eabi/lib/thumb2\libc.a
END GROUP
                0x10008000                PROVIDE (__cs3_stack, (__cs3_region_start_ram + __cs3_region_size_ram))
                0x000079d8                PROVIDE (__cs3_stack_size, ((__cs3_region_start_ram + __cs3_region_size_ram) - _end))
                0x10000628                PROVIDE (__cs3_heap_start, _end)
                0x10008000                PROVIDE (__cs3_heap_end, (__cs3_region_start_ram + __cs3_region_size_ram))

.text           0x00000000     0x959c
 CREATE_OBJECT_SYMBOLS
                0x00000000                __cs3_region_start_rom = .
 *(.cs3.region-head.rom)
                0x00000000                __cs3_interrupt_vector = __cs3_interrupt_vector_cortex_m
 *(.cs3.interrupt_vector)
 .cs3.interrupt_vector
                0x00000000       0xc4 startup_LPC17xx.o
                0x00000000                __cs3_interrupt_vector_cortex_m
                0x00000001                ASSERT ((. != __cs3_interrupt_vector_cortex_m), No interrupt vector)
 *(.rom)
 *(.rom.b)
                0x000000c4                __cs3_reset = __cs3_reset_cortex_m
 *(.cs3.reset)
 .cs3.reset     0x000000c4       0x10 startup_LPC17xx.o
                0x000000c4                __cs3_reset_cortex_m
                0x00000001                ASSERT ((. != __cs3_reset), No reset code)
 *(.text .text.* .gnu.linkonce.t.*)
 .text          0x000000d4       0x14 startup_LPC17xx.o
                0x000000d4                NMI_Handler
                0x000000d6                HardFault_Handler
                0x000000d8                MemManage_Handler
                0x000000da                BusFault_Handler
                0x000000dc                UsageFault_Handler
                0x000000de                SVC_Handler
                0x000000e0                DebugMon_Handler
                0x000000e2                PendSV_Handler
                0x000000e4                SysTick_Handler
                0x000000e6                I2C1_IRQHandler
                0x000000e6                EINT2_IRQHandler
                0x000000e6                UART1_IRQHandler
                0x000000e6                EINT3_IRQHandler
                0x000000e6                TIMER3_IRQHandler
                0x000000e6                UART0_IRQHandler
                0x000000e6                I2C0_IRQHandler
                0x000000e6                PLL0_IRQHandler
                0x000000e6                RIT_IRQHandler
                0x000000e6                PLL1_IRQHandler
                0x000000e6                SSP0_IRQHandler
                0x000000e6                I2S_IRQHandler
                0x000000e6                I2C2_IRQHandler
                0x000000e6                RTC_IRQHandler
                0x000000e6                TIMER0_IRQHandler
                0x000000e6                SPI_IRQHandler
                0x000000e6                EINT1_IRQHandler
                0x000000e6                TIMER1_IRQHandler
                0x000000e6                UART2_IRQHandler
                0x000000e6                Default_Handler
                0x000000e6                ADC_IRQHandler
                0x000000e6                SSP1_IRQHandler
                0x000000e6                BOD_IRQHandler
                0x000000e6                PWM1_IRQHandler
                0x000000e6                WDT_IRQHandler
                0x000000e6                CAN_IRQHandler
                0x000000e6                QEI_IRQHandler
                0x000000e6                EINT0_IRQHandler
                0x000000e6                DMA_IRQHandler
                0x000000e6                TIMER2_IRQHandler
                0x000000e6                UART3_IRQHandler
                0x000000e6                MCPWM_IRQHandler
                0x000000e6                ENET_IRQHandler
 .text          0x000000e8      0x28c core_cm3.o
                0x000000e8                __get_PSP
                0x000000f8                __set_PSP
                0x00000100                __get_MSP
                0x00000110                __set_MSP
                0x00000118                __get_BASEPRI
                0x00000138                __set_BASEPRI
                0x00000150                __get_PRIMASK
                0x00000170                __set_PRIMASK
                0x00000188                __get_FAULTMASK
                0x000001a8                __set_FAULTMASK
                0x000001c0                __get_CONTROL
                0x000001e0                __set_CONTROL
                0x000001f8                __REV
                0x0000021c                __REV16
                0x00000240                __REVSH
                0x00000264                __RBIT
                0x00000288                __LDREXB
                0x000002ac                __LDREXH
                0x000002d0                __LDREXW
                0x000002f4                __STREXB
                0x00000320                __STREXH
                0x0000034c                __STREXW
 .text          0x00000374      0x43c system_LPC17xx.o
                0x00000374                SystemCoreClockUpdate
                0x0000059c                SystemInit
 .text          0x000007b0      0x2c4 main.o
                0x000007b0                main
                0x0000082c                Main_Read
                0x000008b4                Main_Write
                0x0000099c                Main_Copy
 .text          0x00000a74       0x5c syscalls.o
                0x00000a74                _sbrk
 .text          0x00000ad0     0x1570 usbhost_fat.o
                0x00000ad0                FAT_Init
                0x00000df8                FAT_GetFATType
                0x00000e68                FILE_Open
                0x00000f3c                FAT_FindEntry
                0x00001058                FAT_GetSFN
                0x000010d8                FAT_GetSfnName
                0x00001148                FAT_GetSfnExt
                0x000011d4                FAT_StrCaseCmp
                0x00001260                FAT_ChkEntType
                0x000012ac                FILE_Read
                0x00001450                FAT_ClusRead
                0x0000165c                FILE_Write
                0x0000182c                FAT_ClusWrite
                0x00001a64                FAT_GetNextClus
                0x00001afc                FAT_GetFreeClus
                0x00001bc8                FAT_UpdateFAT
                0x00001c64                FAT_UpdateEntry
                0x00001ccc                FAT_CreateEntry
                0x00001d14                FAT_GetFreeEntry
                0x00001de4                FAT_PutSFN
                0x00001f54                FILE_Close
                0x00002008                FAT_GetEndClus
 .text          0x00002040      0xe9c usbhost_lpc17xx.o
                0x000020d4                Host_DelayMS
                0x00002104                Host_DelayUS
                0x00002134                Host_Init
                0x000023f8                USB_IRQHandler
                0x0000259c                Host_ProcessTD
                0x00002750                Host_EnumDev
                0x000029d0                Host_CtrlRecv
                0x00002a7c                Host_CtrlSend
                0x00002b28                Host_FillSetup
                0x00002bd4                Host_TDInit
                0x00002c08                Host_EDInit
                0x00002c3c                Host_HCCAInit
                0x00002c84                Host_WDHWait
                0x00002cac                ReadLE32U
                0x00002d0c                WriteLE32U
                0x00002d58                ReadLE16U
                0x00002d90                WriteLE16U
                0x00002dc4                ReadBE32U
                0x00002e24                WriteBE32U
                0x00002e70                ReadBE16U
                0x00002ea8                WriteBE16U
 .text          0x00002edc      0xa58 usbhost_ms.o
                0x00002edc                MS_Init
                0x00002f6c                MS_ParseConfiguration
                0x00003134                MS_GetMaxLUN
                0x00003170                MS_GetSenseInfo
                0x00003248                MS_TestUnitReady
                0x000032f4                MS_ReadCapacity
                0x0000340c                MS_Inquire
                0x0000352c                MS_BulkRecv
                0x00003650                MS_BulkSend
                0x00003738                Fill_MSCommand
 .text          0x00003934      0x274 usbhost_uart.o
                0x00003934                UART_Init
                0x00003aec                UART_PrintChar
                0x00003b20                UART_PrintStr
                0x00003b70                UART_Printf
 .text          0x00003ba8       0x4c g:/arquivos de programas/codesourcery/sourcery g++ lite/bin/../lib/gcc/arm-none-eabi/4.4.1/../../../../arm-none-eabi/lib/thumb2\libc.a(lib_a-vsprintf.o)
                0x00003ba8                _vsprintf_r
                0x00003bdc                vsprintf
 .text          0x00003bf4        0x0 g:/arquivos de programas/codesourcery/sourcery g++ lite/bin/../lib/gcc/arm-none-eabi/4.4.1/../../../../arm-none-eabi/lib/thumb2\libc.a(lib_a-impure.o)
 .text          0x00003bf4     0x15a8 g:/arquivos de programas/codesourcery/sourcery g++ lite/bin/../lib/gcc/arm-none-eabi/4.4.1/../../../../arm-none-eabi/lib/thumb2\libc.a(lib_a-svfprintf.o)
                0x00003d10                _svfprintf_r
 *fill*         0x0000519c        0x4 00
 .text          0x000051a0      0xfb8 g:/arquivos de programas/codesourcery/sourcery g++ lite/bin/../lib/gcc/arm-none-eabi/4.4.1/../../../../arm-none-eabi/lib/thumb2\libc.a(lib_a-dtoa.o)
                0x000052c0                _dtoa_r
 .text          0x00006158      0x268 g:/arquivos de programas/codesourcery/sourcery g++ lite/bin/../lib/gcc/arm-none-eabi/4.4.1/../../../../arm-none-eabi/lib/thumb2\libc.a(lib_a-freer.o)
                0x00006158                _malloc_trim_r
                0x00006200                _free_r
 .text          0x000063c0       0x74 g:/arquivos de programas/codesourcery/sourcery g++ lite/bin/../lib/gcc/arm-none-eabi/4.4.1/../../../../arm-none-eabi/lib/thumb2\libc.a(lib_a-locale.o)
                0x000063c0                __locale_charset
                0x000063cc                _localeconv_r
                0x000063d4                localeconv
                0x000063dc                _setlocale_r
                0x00006424                setlocale
 .text          0x00006434       0x20 g:/arquivos de programas/codesourcery/sourcery g++ lite/bin/../lib/gcc/arm-none-eabi/4.4.1/../../../../arm-none-eabi/lib/thumb2\libc.a(lib_a-malloc.o)
                0x00006434                free
                0x00006444                malloc
 .text          0x00006454      0x5a4 g:/arquivos de programas/codesourcery/sourcery g++ lite/bin/../lib/gcc/arm-none-eabi/4.4.1/../../../../arm-none-eabi/lib/thumb2\libc.a(lib_a-mallocr.o)
                0x00006454                _malloc_r
 .text          0x000069f8       0x74 g:/arquivos de programas/codesourcery/sourcery g++ lite/bin/../lib/gcc/arm-none-eabi/4.4.1/../../../../arm-none-eabi/lib/thumb2\libc.a(lib_a-memchr.o)
                0x000069f8                memchr
 .text          0x00006a6c      0x190 g:/arquivos de programas/codesourcery/sourcery g++ lite/bin/../lib/gcc/arm-none-eabi/4.4.1/../../../../arm-none-eabi/lib/thumb2\libc.a(lib_a-memcpy.o)
                0x00006a6c                memcpy
 .text          0x00006bfc       0xb8 g:/arquivos de programas/codesourcery/sourcery g++ lite/bin/../lib/gcc/arm-none-eabi/4.4.1/../../../../arm-none-eabi/lib/thumb2\libc.a(lib_a-memmove.o)
                0x00006bfc                memmove
 .text          0x00006cb4        0x8 g:/arquivos de programas/codesourcery/sourcery g++ lite/bin/../lib/gcc/arm-none-eabi/4.4.1/../../../../arm-none-eabi/lib/thumb2\libc.a(lib_a-mlock.o)
                0x00006cb4                __malloc_lock
                0x00006cb8                __malloc_unlock
 .text          0x00006cbc      0x958 g:/arquivos de programas/codesourcery/sourcery g++ lite/bin/../lib/gcc/arm-none-eabi/4.4.1/../../../../arm-none-eabi/lib/thumb2\libc.a(lib_a-mprec.o)
                0x00006cbc                __hi0bits
                0x00006cfc                __lo0bits
                0x00006d60                __mcmp
                0x00006da0                __ulp
                0x00006dec                __b2d
                0x00006e94                __ratio
                0x00006ef4                _mprec_log10
                0x00006f2c                __copybits
                0x00006f7c                __any_on
                0x00006fd4                _Bfree
                0x0000700c                _Balloc
                0x00007078                __d2b
                0x00007148                __mdiff
                0x00007240                __lshift
                0x000072fc                __multiply
                0x00007430                __i2b
                0x00007444                __multadd
                0x000074cc                __pow5mult
                0x00007578                __s2b
 .text          0x00007614      0x3b4 g:/arquivos de programas/codesourcery/sourcery g++ lite/bin/../lib/gcc/arm-none-eabi/4.4.1/../../../../arm-none-eabi/lib/thumb2\libc.a(lib_a-reallocr.o)
                0x00007614                _realloc_r
 .text          0x000079c8       0x24 g:/arquivos de programas/codesourcery/sourcery g++ lite/bin/../lib/gcc/arm-none-eabi/4.4.1/../../../../arm-none-eabi/lib/thumb2\libc.a(lib_a-s_isinfd.o)
                0x000079c8                __isinfd
 .text          0x000079ec       0x1c g:/arquivos de programas/codesourcery/sourcery g++ lite/bin/../lib/gcc/arm-none-eabi/4.4.1/../../../../arm-none-eabi/lib/thumb2\libc.a(lib_a-s_isnand.o)
                0x000079ec                __isnand
 .text          0x00007a08       0x28 g:/arquivos de programas/codesourcery/sourcery g++ lite/bin/../lib/gcc/arm-none-eabi/4.4.1/../../../../arm-none-eabi/lib/thumb2\libc.a(lib_a-sbrkr.o)
                0x00007a08                _sbrk_r
 .text          0x00007a30      0x1dc g:/arquivos de programas/codesourcery/sourcery g++ lite/bin/../lib/gcc/arm-none-eabi/4.4.1/../../../../arm-none-eabi/lib/thumb2\libc.a(lib_a-strcmp.o)
                0x00007a30                strcmp
 .text          0x00007c0c       0x60 g:/arquivos de programas/codesourcery/sourcery g++ lite/bin/../lib/gcc/arm-none-eabi/4.4.1/../../../../arm-none-eabi/lib/thumb2\libc.a(lib_a-strlen.o)
                0x00007c0c                strlen
 .text          0x00007c6c       0x5c g:/arquivos de programas/codesourcery/sourcery g++ lite/bin/../lib/gcc/arm-none-eabi/4.4.1/../../../../arm-none-eabi/lib/thumb2\libc.a(lib_a-callocr.o)
                0x00007c6c                _calloc_r
 .text          0x00007cc8       0xd4 g:/arquivos de programas/codesourcery/sourcery g++ lite/bin/../lib/gcc/arm-none-eabi/4.4.1/../../../../arm-none-eabi/lib/thumb2\libc.a(lib_a-memset.o)
                0x00007cc8                memset
 .text          0x00007d9c      0x10c g:/arquivos de programas/codesourcery/sourcery g++ lite/bin/../lib/gcc/arm-none-eabi/4.4.1/../../../../arm-none-eabi/lib/thumb2\libc.a(lib_a-reent.o)
                0x00007d9c                _wrapup_reent
                0x00007dd4                cleanup_glue
                0x00007df0                _reclaim_reent
 .text          0x00007ea8      0x278 g:/arquivos de programas/codesourcery/sourcery g++ lite/bin/../lib/gcc/arm-none-eabi/4.4.1/thumb2\libgcc.a(_udivsi3.o)
                0x00007ea8                __aeabi_uidiv
                0x00007ea8                __udivsi3
                0x00008104                __aeabi_uidivmod
 .text          0x00008120        0x4 g:/arquivos de programas/codesourcery/sourcery g++ lite/bin/../lib/gcc/arm-none-eabi/4.4.1/thumb2\libgcc.a(_dvmd_tls.o)
                0x00008120                __aeabi_idiv0
                0x00008120                __aeabi_ldiv0
 .text          0x00008124      0x370 g:/arquivos de programas/codesourcery/sourcery g++ lite/bin/../lib/gcc/arm-none-eabi/4.4.1/thumb2\libgcc.a(_arm_addsubdf3.o)
                0x00008124                __aeabi_drsub
                0x0000812c                __aeabi_dsub
                0x0000812c                __subdf3
                0x00008130                __aeabi_dadd
                0x00008130                __adddf3
                0x000083a8                __floatunsidf
                0x000083a8                __aeabi_ui2d
                0x000083c8                __floatsidf
                0x000083c8                __aeabi_i2d
                0x000083ec                __aeabi_f2d
                0x000083ec                __extendsfdf2
                0x00008428                __floatundidf
                0x00008428                __aeabi_ul2d
                0x00008438                __floatdidf
                0x00008438                __aeabi_l2d
 .text          0x00008494      0x424 g:/arquivos de programas/codesourcery/sourcery g++ lite/bin/../lib/gcc/arm-none-eabi/4.4.1/thumb2\libgcc.a(_arm_muldivdf3.o)
                0x00008494                __aeabi_dmul
                0x00008494                __muldf3
                0x000086e8                __divdf3
                0x000086e8                __aeabi_ddiv
 .text          0x000088b8      0x110 g:/arquivos de programas/codesourcery/sourcery g++ lite/bin/../lib/gcc/arm-none-eabi/4.4.1/thumb2\libgcc.a(_arm_cmpdf2.o)
                0x000088b8                __gtdf2
                0x000088b8                __gedf2
                0x000088c0                __ltdf2
                0x000088c0                __ledf2
                0x000088c8                __nedf2
                0x000088c8                __eqdf2
                0x000088c8                __cmpdf2
                0x00008944                __aeabi_cdrcmple
                0x00008954                __aeabi_cdcmpeq
                0x00008954                __aeabi_cdcmple
                0x00008964                __aeabi_dcmpeq
                0x00008978                __aeabi_dcmplt
                0x0000898c                __aeabi_dcmple
                0x000089a0                __aeabi_dcmpge
                0x000089b4                __aeabi_dcmpgt
 .text          0x000089c8       0x50 g:/arquivos de programas/codesourcery/sourcery g++ lite/bin/../lib/gcc/arm-none-eabi/4.4.1/thumb2\libgcc.a(_arm_fixdfsi.o)
                0x000089c8                __aeabi_d2iz
                0x000089c8                __fixdfsi
 .text          0x00008a18       0x2c g:/arquivos de programas/codesourcery/sourcery g++ lite/bin/../lib/gcc/arm-none-eabi/4.4.1/thumb2\libgcc.a(_aeabi_uldivmod.o)
                0x00008a18                __aeabi_uldivmod
 .text          0x00008a44       0x58 g:/arquivos de programas/codesourcery/sourcery g++ lite/bin/../lib/gcc/arm-none-eabi/4.4.1/thumb2\libgcc.a(bpabi.o)
                0x00008a44                __gnu_uldivmod_helper
                0x00008a70                __gnu_ldivmod_helper
 .text          0x00008a9c      0x364 g:/arquivos de programas/codesourcery/sourcery g++ lite/bin/../lib/gcc/arm-none-eabi/4.4.1/thumb2\libgcc.a(_divdi3.o)
                0x00008a9c                __divdi3
 .text          0x00008e00      0x300 g:/arquivos de programas/codesourcery/sourcery g++ lite/bin/../lib/gcc/arm-none-eabi/4.4.1/thumb2\libgcc.a(_udivdi3.o)
                0x00008e00                __udivdi3
 *(.plt)
 *(.gnu.warning)
 *(.glue_7t)
 .glue_7t       0x00000000        0x0 linker stubs
 *(.glue_7)
 .glue_7        0x00000000        0x0 linker stubs
 *(.vfp11_veneer)
 .vfp11_veneer  0x00000000        0x0 linker stubs
 *(.rodata .rodata.* .gnu.linkonce.r.*)
 .rodata        0x00009100       0xe0 main.o
 .rodata        0x000091e0       0x30 usbhost_fat.o
 .rodata        0x00009210       0xe0 usbhost_lpc17xx.o
 .rodata        0x000092f0       0xac usbhost_ms.o
 .rodata        0x0000939c        0x4 g:/arquivos de programas/codesourcery/sourcery g++ lite/bin/../lib/gcc/arm-none-eabi/4.4.1/../../../../arm-none-eabi/lib/thumb2\libc.a(lib_a-impure.o)
                0x0000939c                _global_impure_ptr
 .rodata.str1.4
                0x000093a0        0x2 g:/arquivos de programas/codesourcery/sourcery g++ lite/bin/../lib/gcc/arm-none-eabi/4.4.1/../../../../arm-none-eabi/lib/thumb2\libc.a(lib_a-impure.o)
                                  0x4 (size before relaxing)
 *fill*         0x000093a2        0x2 00
 .rodata        0x000093a4       0x20 g:/arquivos de programas/codesourcery/sourcery g++ lite/bin/../lib/gcc/arm-none-eabi/4.4.1/../../../../arm-none-eabi/lib/thumb2\libc.a(lib_a-svfprintf.o)
 .rodata.str1.4
                0x000093c4       0x42 g:/arquivos de programas/codesourcery/sourcery g++ lite/bin/../lib/gcc/arm-none-eabi/4.4.1/../../../../arm-none-eabi/lib/thumb2\libc.a(lib_a-svfprintf.o)
                                 0x44 (size before relaxing)
 *fill*         0x00009406        0x2 00
 .rodata.str1.4
                0x00009408       0x10 g:/arquivos de programas/codesourcery/sourcery g++ lite/bin/../lib/gcc/arm-none-eabi/4.4.1/../../../../arm-none-eabi/lib/thumb2\libc.a(lib_a-dtoa.o)
                                 0x14 (size before relaxing)
 .rodata        0x00009418       0x34 g:/arquivos de programas/codesourcery/sourcery g++ lite/bin/../lib/gcc/arm-none-eabi/4.4.1/../../../../arm-none-eabi/lib/thumb2\libc.a(lib_a-locale.o)
 .rodata.str1.4
                0x0000944c       0x10 g:/arquivos de programas/codesourcery/sourcery g++ lite/bin/../lib/gcc/arm-none-eabi/4.4.1/../../../../arm-none-eabi/lib/thumb2\libc.a(lib_a-locale.o)
                                 0x18 (size before relaxing)
 *fill*         0x0000945c        0x4 00
 .rodata        0x00009460      0x128 g:/arquivos de programas/codesourcery/sourcery g++ lite/bin/../lib/gcc/arm-none-eabi/4.4.1/../../../../arm-none-eabi/lib/thumb2\libc.a(lib_a-mprec.o)
                0x00009460                __mprec_tens
                0x00009538                __mprec_bigtens
                0x00009560                __mprec_tinytens
 *(.ARM.extab* .gnu.linkonce.armextab.*)
 .ARM.extab.cs3.reset
                0x00009588        0x0 startup_LPC17xx.o
 .ARM.extab     0x00009588        0x0 g:/arquivos de programas/codesourcery/sourcery g++ lite/bin/../lib/gcc/arm-none-eabi/4.4.1/thumb2\libgcc.a(_divdi3.o)
 .ARM.extab     0x00009588        0x0 g:/arquivos de programas/codesourcery/sourcery g++ lite/bin/../lib/gcc/arm-none-eabi/4.4.1/thumb2\libgcc.a(_udivdi3.o)
 *(.gcc_except_table)
 *(.eh_frame_hdr)
 *(.eh_frame)
                0x00009588                . = ALIGN (0x4)
 *(.init)
                0x00009588                . = ALIGN (0x4)
                0x00009588                __preinit_array_start = .
 *(.preinit_array)
                0x00009588                __preinit_array_end = .
                0x00009588                . = ALIGN (0x4)
                0x00009588                __init_array_start = .
 *(SORT(.init_array.*))
 *(.init_array)
                0x00009588                __init_array_end = .
                0x00009588                . = ALIGN (0x4)
 *crtbegin.o(.ctors)
 *(EXCLUDE_FILE(*crtend.o) .ctors)
 *(SORT(.ctors.*))
 *crtend.o(.ctors)
                0x00009588                . = ALIGN (0x4)
 *(.fini)
                0x00009588                . = ALIGN (0x4)
                0x00009588                __fini_array_start = .
 *(.fini_array)
 *(SORT(.fini_array.*))
                0x00009588                __fini_array_end = .
 *crtbegin.o(.dtors)
 *(EXCLUDE_FILE(*crtend.o) .dtors)
 *(SORT(.dtors.*))
 *crtend.o(.dtors)
                0x00009588                . = ALIGN (0x4)
                0x00009588                __cs3_regions = .
                0x00009588        0x4 LONG 0x0
                0x0000958c        0x4 LONG 0x95a8 __cs3_region_init_ram
                0x00009590        0x4 LONG 0x10000000 __cs3_region_start_ram
                0x00009594        0x4 LONG 0x518 __cs3_region_init_size_ram
                0x00009598        0x4 LONG 0x110 __cs3_region_zero_size_ram
                0x0000959c                __exidx_start = .

.v4_bx          0x0000959c        0x0
 .v4_bx         0x00000000        0x0 linker stubs

.ARM.exidx      0x0000959c        0x8
 *(.ARM.exidx* .gnu.linkonce.armexidx.*)
 .ARM.exidx.cs3.reset
                0x0000959c        0x8 startup_LPC17xx.o
 .ARM.exidx     0x000095a4        0x0 g:/arquivos de programas/codesourcery/sourcery g++ lite/bin/../lib/gcc/arm-none-eabi/4.4.1/thumb2\libgcc.a(_divdi3.o)
                                  0x8 (size before relaxing)
 .ARM.exidx     0x000095a4        0x0 g:/arquivos de programas/codesourcery/sourcery g++ lite/bin/../lib/gcc/arm-none-eabi/4.4.1/thumb2\libgcc.a(_udivdi3.o)
                                  0x8 (size before relaxing)
                0x000095a4                __exidx_end = .

.text.align     0x000095a4        0x4
                0x000095a8                . = ALIGN (0x8)
 *fill*         0x000095a4        0x4 00
                0x000095a8                _etext = .
                0x00080000                __cs3_region_size_rom = 0x80000
                0x00000001                __cs3_region_num = 0x1

.data           0x10000000      0x518 load address 0x000095a8
                0x10000000                __cs3_region_start_ram = .
 *(.cs3.region-head.ram)
 *(.jcr)
 *(.got.plt)
 *(.got)
 *(.shdata)
 *(.data .data.* .gnu.linkonce.d.*)
 .data          0x10000000        0x0 startup_LPC17xx.o
 .data          0x10000000        0x0 core_cm3.o
 .data          0x10000000        0x4 system_LPC17xx.o
                0x10000000                SystemCoreClock
 .data          0x10000004        0x0 main.o
 .data          0x10000004        0x0 syscalls.o
 .data          0x10000004        0x0 usbhost_fat.o
 .data          0x10000004        0x0 usbhost_lpc17xx.o
 .data          0x10000004        0x0 usbhost_ms.o
 .data          0x10000004        0x0 usbhost_uart.o
 .data          0x10000004        0x0 g:/arquivos de programas/codesourcery/sourcery g++ lite/bin/../lib/gcc/arm-none-eabi/4.4.1/../../../../arm-none-eabi/lib/thumb2\libc.a(lib_a-vsprintf.o)
 .data          0x10000004       0xf4 g:/arquivos de programas/codesourcery/sourcery g++ lite/bin/../lib/gcc/arm-none-eabi/4.4.1/../../../../arm-none-eabi/lib/thumb2\libc.a(lib_a-impure.o)
                0x10000004                _impure_ptr
 .data          0x100000f8        0x0 g:/arquivos de programas/codesourcery/sourcery g++ lite/bin/../lib/gcc/arm-none-eabi/4.4.1/../../../../arm-none-eabi/lib/thumb2\libc.a(lib_a-svfprintf.o)
 .data          0x100000f8        0x0 g:/arquivos de programas/codesourcery/sourcery g++ lite/bin/../lib/gcc/arm-none-eabi/4.4.1/../../../../arm-none-eabi/lib/thumb2\libc.a(lib_a-dtoa.o)
 .data          0x100000f8        0x0 g:/arquivos de programas/codesourcery/sourcery g++ lite/bin/../lib/gcc/arm-none-eabi/4.4.1/../../../../arm-none-eabi/lib/thumb2\libc.a(lib_a-freer.o)
 .data          0x100000f8       0x10 g:/arquivos de programas/codesourcery/sourcery g++ lite/bin/../lib/gcc/arm-none-eabi/4.4.1/../../../../arm-none-eabi/lib/thumb2\libc.a(lib_a-locale.o)
                0x100000f8                __mb_cur_max
                0x100000fc                __lc_ctype
 .data          0x10000108        0x0 g:/arquivos de programas/codesourcery/sourcery g++ lite/bin/../lib/gcc/arm-none-eabi/4.4.1/../../../../arm-none-eabi/lib/thumb2\libc.a(lib_a-malloc.o)
 .data          0x10000108      0x410 g:/arquivos de programas/codesourcery/sourcery g++ lite/bin/../lib/gcc/arm-none-eabi/4.4.1/../../../../arm-none-eabi/lib/thumb2\libc.a(lib_a-mallocr.o)
                0x10000108                __malloc_av_
                0x10000510                __malloc_sbrk_base
                0x10000514                __malloc_trim_threshold
 .data          0x10000518        0x0 g:/arquivos de programas/codesourcery/sourcery g++ lite/bin/../lib/gcc/arm-none-eabi/4.4.1/../../../../arm-none-eabi/lib/thumb2\libc.a(lib_a-memchr.o)
 .data          0x10000518        0x0 g:/arquivos de programas/codesourcery/sourcery g++ lite/bin/../lib/gcc/arm-none-eabi/4.4.1/../../../../arm-none-eabi/lib/thumb2\libc.a(lib_a-memcpy.o)
 .data          0x10000518        0x0 g:/arquivos de programas/codesourcery/sourcery g++ lite/bin/../lib/gcc/arm-none-eabi/4.4.1/../../../../arm-none-eabi/lib/thumb2\libc.a(lib_a-memmove.o)
 .data          0x10000518        0x0 g:/arquivos de programas/codesourcery/sourcery g++ lite/bin/../lib/gcc/arm-none-eabi/4.4.1/../../../../arm-none-eabi/lib/thumb2\libc.a(lib_a-mlock.o)
 .data          0x10000518        0x0 g:/arquivos de programas/codesourcery/sourcery g++ lite/bin/../lib/gcc/arm-none-eabi/4.4.1/../../../../arm-none-eabi/lib/thumb2\libc.a(lib_a-mprec.o)
 .data          0x10000518        0x0 g:/arquivos de programas/codesourcery/sourcery g++ lite/bin/../lib/gcc/arm-none-eabi/4.4.1/../../../../arm-none-eabi/lib/thumb2\libc.a(lib_a-reallocr.o)
 .data          0x10000518        0x0 g:/arquivos de programas/codesourcery/sourcery g++ lite/bin/../lib/gcc/arm-none-eabi/4.4.1/../../../../arm-none-eabi/lib/thumb2\libc.a(lib_a-s_isinfd.o)
 .data          0x10000518        0x0 g:/arquivos de programas/codesourcery/sourcery g++ lite/bin/../lib/gcc/arm-none-eabi/4.4.1/../../../../arm-none-eabi/lib/thumb2\libc.a(lib_a-s_isnand.o)
 .data          0x10000518        0x0 g:/arquivos de programas/codesourcery/sourcery g++ lite/bin/../lib/gcc/arm-none-eabi/4.4.1/../../../../arm-none-eabi/lib/thumb2\libc.a(lib_a-sbrkr.o)
 .data          0x10000518        0x0 g:/arquivos de programas/codesourcery/sourcery g++ lite/bin/../lib/gcc/arm-none-eabi/4.4.1/../../../../arm-none-eabi/lib/thumb2\libc.a(lib_a-strcmp.o)
 .data          0x10000518        0x0 g:/arquivos de programas/codesourcery/sourcery g++ lite/bin/../lib/gcc/arm-none-eabi/4.4.1/../../../../arm-none-eabi/lib/thumb2\libc.a(lib_a-strlen.o)
 .data          0x10000518        0x0 g:/arquivos de programas/codesourcery/sourcery g++ lite/bin/../lib/gcc/arm-none-eabi/4.4.1/../../../../arm-none-eabi/lib/thumb2\libc.a(lib_a-callocr.o)
 .data          0x10000518        0x0 g:/arquivos de programas/codesourcery/sourcery g++ lite/bin/../lib/gcc/arm-none-eabi/4.4.1/../../../../arm-none-eabi/lib/thumb2\libc.a(lib_a-memset.o)
 .data          0x10000518        0x0 g:/arquivos de programas/codesourcery/sourcery g++ lite/bin/../lib/gcc/arm-none-eabi/4.4.1/../../../../arm-none-eabi/lib/thumb2\libc.a(lib_a-reent.o)
 .data          0x10000518        0x0 g:/arquivos de programas/codesourcery/sourcery g++ lite/bin/../lib/gcc/arm-none-eabi/4.4.1/thumb2\libgcc.a(_udivsi3.o)
 .data          0x10000518        0x0 g:/arquivos de programas/codesourcery/sourcery g++ lite/bin/../lib/gcc/arm-none-eabi/4.4.1/thumb2\libgcc.a(_dvmd_tls.o)
 .data          0x10000518        0x0 g:/arquivos de programas/codesourcery/sourcery g++ lite/bin/../lib/gcc/arm-none-eabi/4.4.1/thumb2\libgcc.a(_arm_addsubdf3.o)
 .data          0x10000518        0x0 g:/arquivos de programas/codesourcery/sourcery g++ lite/bin/../lib/gcc/arm-none-eabi/4.4.1/thumb2\libgcc.a(_arm_muldivdf3.o)
 .data          0x10000518        0x0 g:/arquivos de programas/codesourcery/sourcery g++ lite/bin/../lib/gcc/arm-none-eabi/4.4.1/thumb2\libgcc.a(_arm_cmpdf2.o)
 .data          0x10000518        0x0 g:/arquivos de programas/codesourcery/sourcery g++ lite/bin/../lib/gcc/arm-none-eabi/4.4.1/thumb2\libgcc.a(_arm_fixdfsi.o)
 .data          0x10000518        0x0 g:/arquivos de programas/codesourcery/sourcery g++ lite/bin/../lib/gcc/arm-none-eabi/4.4.1/thumb2\libgcc.a(_aeabi_uldivmod.o)
 .data          0x10000518        0x0 g:/arquivos de programas/codesourcery/sourcery g++ lite/bin/../lib/gcc/arm-none-eabi/4.4.1/thumb2\libgcc.a(bpabi.o)
 .data          0x10000518        0x0 g:/arquivos de programas/codesourcery/sourcery g++ lite/bin/../lib/gcc/arm-none-eabi/4.4.1/thumb2\libgcc.a(_divdi3.o)
 .data          0x10000518        0x0 g:/arquivos de programas/codesourcery/sourcery g++ lite/bin/../lib/gcc/arm-none-eabi/4.4.1/thumb2\libgcc.a(_udivdi3.o)
 *(.ram)
                0x10000518                . = ALIGN (0x8)
                0x10000518                _edata = .

.bss            0x10000518      0x110 load address 0x00009ac0
 *(.shbss)
 *(.bss .bss.* .gnu.linkonce.b.*)
 .bss           0x10000518        0x0 startup_LPC17xx.o
 .bss           0x10000518        0x0 core_cm3.o
 .bss           0x10000518        0x0 system_LPC17xx.o
 .bss           0x10000518        0x0 main.o
 .bss           0x10000518        0x4 syscalls.o
 .bss           0x1000051c       0x58 usbhost_fat.o
 .bss           0x10000574       0x38 usbhost_lpc17xx.o
                0x10000574                gUSBConnected
                0x10000578                HOST_RhscIntr
                0x1000057c                HOST_WdhIntr
                0x10000580                HOST_TDControlStatus
                0x10000584                EDCtrl
                0x10000588                EDBulkIn
                0x1000058c                EDBulkOut
                0x10000590                TDHead
                0x10000594                TDTail
                0x10000598                Hcca
                0x1000059c                TDBufNonVol
                0x100005a0                TDBuffer
                0x100005a4                FATBuffer
                0x100005a8                UserBuffer
 .bss           0x100005ac        0x8 usbhost_ms.o
                0x100005ac                MS_BlkSize
 .bss           0x100005b4       0x2c usbhost_uart.o
 .bss           0x100005e0        0x0 g:/arquivos de programas/codesourcery/sourcery g++ lite/bin/../lib/gcc/arm-none-eabi/4.4.1/../../../../arm-none-eabi/lib/thumb2\libc.a(lib_a-vsprintf.o)
 .bss           0x100005e0        0x0 g:/arquivos de programas/codesourcery/sourcery g++ lite/bin/../lib/gcc/arm-none-eabi/4.4.1/../../../../arm-none-eabi/lib/thumb2\libc.a(lib_a-impure.o)
 .bss           0x100005e0        0x0 g:/arquivos de programas/codesourcery/sourcery g++ lite/bin/../lib/gcc/arm-none-eabi/4.4.1/../../../../arm-none-eabi/lib/thumb2\libc.a(lib_a-svfprintf.o)
 .bss           0x100005e0        0x0 g:/arquivos de programas/codesourcery/sourcery g++ lite/bin/../lib/gcc/arm-none-eabi/4.4.1/../../../../arm-none-eabi/lib/thumb2\libc.a(lib_a-dtoa.o)
 .bss           0x100005e0        0x0 g:/arquivos de programas/codesourcery/sourcery g++ lite/bin/../lib/gcc/arm-none-eabi/4.4.1/../../../../arm-none-eabi/lib/thumb2\libc.a(lib_a-freer.o)
 .bss           0x100005e0        0xc g:/arquivos de programas/codesourcery/sourcery g++ lite/bin/../lib/gcc/arm-none-eabi/4.4.1/../../../../arm-none-eabi/lib/thumb2\libc.a(lib_a-locale.o)
                0x100005e0                __nlocale_changed
                0x100005e4                __mlocale_changed
                0x100005e8                _PathLocale
 .bss           0x100005ec        0x0 g:/arquivos de programas/codesourcery/sourcery g++ lite/bin/../lib/gcc/arm-none-eabi/4.4.1/../../../../arm-none-eabi/lib/thumb2\libc.a(lib_a-malloc.o)
 .bss           0x100005ec       0x34 g:/arquivos de programas/codesourcery/sourcery g++ lite/bin/../lib/gcc/arm-none-eabi/4.4.1/../../../../arm-none-eabi/lib/thumb2\libc.a(lib_a-mallocr.o)
                0x100005ec                __malloc_top_pad
                0x100005f0                __malloc_current_mallinfo
                0x10000618                __malloc_max_sbrked_mem
                0x1000061c                __malloc_max_total_mem
 .bss           0x10000620        0x0 g:/arquivos de programas/codesourcery/sourcery g++ lite/bin/../lib/gcc/arm-none-eabi/4.4.1/../../../../arm-none-eabi/lib/thumb2\libc.a(lib_a-memchr.o)
 .bss           0x10000620        0x0 g:/arquivos de programas/codesourcery/sourcery g++ lite/bin/../lib/gcc/arm-none-eabi/4.4.1/../../../../arm-none-eabi/lib/thumb2\libc.a(lib_a-memcpy.o)
 .bss           0x10000620        0x0 g:/arquivos de programas/codesourcery/sourcery g++ lite/bin/../lib/gcc/arm-none-eabi/4.4.1/../../../../arm-none-eabi/lib/thumb2\libc.a(lib_a-memmove.o)
 .bss           0x10000620        0x0 g:/arquivos de programas/codesourcery/sourcery g++ lite/bin/../lib/gcc/arm-none-eabi/4.4.1/../../../../arm-none-eabi/lib/thumb2\libc.a(lib_a-mlock.o)
 .bss           0x10000620        0x0 g:/arquivos de programas/codesourcery/sourcery g++ lite/bin/../lib/gcc/arm-none-eabi/4.4.1/../../../../arm-none-eabi/lib/thumb2\libc.a(lib_a-mprec.o)
 .bss           0x10000620        0x0 g:/arquivos de programas/codesourcery/sourcery g++ lite/bin/../lib/gcc/arm-none-eabi/4.4.1/../../../../arm-none-eabi/lib/thumb2\libc.a(lib_a-reallocr.o)
 .bss           0x10000620        0x0 g:/arquivos de programas/codesourcery/sourcery g++ lite/bin/../lib/gcc/arm-none-eabi/4.4.1/../../../../arm-none-eabi/lib/thumb2\libc.a(lib_a-s_isinfd.o)
 .bss           0x10000620        0x0 g:/arquivos de programas/codesourcery/sourcery g++ lite/bin/../lib/gcc/arm-none-eabi/4.4.1/../../../../arm-none-eabi/lib/thumb2\libc.a(lib_a-s_isnand.o)
 .bss           0x10000620        0x0 g:/arquivos de programas/codesourcery/sourcery g++ lite/bin/../lib/gcc/arm-none-eabi/4.4.1/../../../../arm-none-eabi/lib/thumb2\libc.a(lib_a-sbrkr.o)
 .bss           0x10000620        0x0 g:/arquivos de programas/codesourcery/sourcery g++ lite/bin/../lib/gcc/arm-none-eabi/4.4.1/../../../../arm-none-eabi/lib/thumb2\libc.a(lib_a-strcmp.o)
 .bss           0x10000620        0x0 g:/arquivos de programas/codesourcery/sourcery g++ lite/bin/../lib/gcc/arm-none-eabi/4.4.1/../../../../arm-none-eabi/lib/thumb2\libc.a(lib_a-strlen.o)
 .bss           0x10000620        0x0 g:/arquivos de programas/codesourcery/sourcery g++ lite/bin/../lib/gcc/arm-none-eabi/4.4.1/../../../../arm-none-eabi/lib/thumb2\libc.a(lib_a-callocr.o)
 .bss           0x10000620        0x0 g:/arquivos de programas/codesourcery/sourcery g++ lite/bin/../lib/gcc/arm-none-eabi/4.4.1/../../../../arm-none-eabi/lib/thumb2\libc.a(lib_a-memset.o)
 .bss           0x10000620        0x0 g:/arquivos de programas/codesourcery/sourcery g++ lite/bin/../lib/gcc/arm-none-eabi/4.4.1/../../../../arm-none-eabi/lib/thumb2\libc.a(lib_a-reent.o)
 .bss           0x10000620        0x0 g:/arquivos de programas/codesourcery/sourcery g++ lite/bin/../lib/gcc/arm-none-eabi/4.4.1/thumb2\libgcc.a(_udivsi3.o)
 .bss           0x10000620        0x0 g:/arquivos de programas/codesourcery/sourcery g++ lite/bin/../lib/gcc/arm-none-eabi/4.4.1/thumb2\libgcc.a(_dvmd_tls.o)
 .bss           0x10000620        0x0 g:/arquivos de programas/codesourcery/sourcery g++ lite/bin/../lib/gcc/arm-none-eabi/4.4.1/thumb2\libgcc.a(_arm_addsubdf3.o)
 .bss           0x10000620        0x0 g:/arquivos de programas/codesourcery/sourcery g++ lite/bin/../lib/gcc/arm-none-eabi/4.4.1/thumb2\libgcc.a(_arm_muldivdf3.o)
 .bss           0x10000620        0x0 g:/arquivos de programas/codesourcery/sourcery g++ lite/bin/../lib/gcc/arm-none-eabi/4.4.1/thumb2\libgcc.a(_arm_cmpdf2.o)
 .bss           0x10000620        0x0 g:/arquivos de programas/codesourcery/sourcery g++ lite/bin/../lib/gcc/arm-none-eabi/4.4.1/thumb2\libgcc.a(_arm_fixdfsi.o)
 .bss           0x10000620        0x0 g:/arquivos de programas/codesourcery/sourcery g++ lite/bin/../lib/gcc/arm-none-eabi/4.4.1/thumb2\libgcc.a(_aeabi_uldivmod.o)
 .bss           0x10000620        0x0 g:/arquivos de programas/codesourcery/sourcery g++ lite/bin/../lib/gcc/arm-none-eabi/4.4.1/thumb2\libgcc.a(bpabi.o)
 .bss           0x10000620        0x0 g:/arquivos de programas/codesourcery/sourcery g++ lite/bin/../lib/gcc/arm-none-eabi/4.4.1/thumb2\libgcc.a(_divdi3.o)
 .bss           0x10000620        0x0 g:/arquivos de programas/codesourcery/sourcery g++ lite/bin/../lib/gcc/arm-none-eabi/4.4.1/thumb2\libgcc.a(_udivdi3.o)
 *(COMMON)
 COMMON         0x10000620        0x4 g:/arquivos de programas/codesourcery/sourcery g++ lite/bin/../lib/gcc/arm-none-eabi/4.4.1/../../../../arm-none-eabi/lib/thumb2\libc.a(lib_a-reent.o)
                0x10000620                errno
 *(.ram.b)
                0x10000628                . = ALIGN (0x8)
 *fill*         0x10000624        0x4 00
                0x10000628                _end = .
                0x10000628                __end = .
                0x10000628                PROVIDE (__HEAP_START, _end)

.heap           0x10000628     0x1000 load address 0x00009ac0
 *(.heap)
 .heap          0x10000628     0x1000 startup_LPC17xx.o
                0x10000628                __cs3_heap_start
                0x10001628                __cs3_heap_end

.stack          0x10007f00      0x100 load address 0x00009ac0
 *(.stack)
 .stack         0x10007f00      0x100 startup_LPC17xx.o
                0x10007f00                __cs3_stack_mem
                0x000095a8                __cs3_region_init_ram = LOADADDR (.data)
                0x00000518                __cs3_region_init_size_ram = (_edata - __cs3_region_start_ram)
                0x00000110                __cs3_region_zero_size_ram = (_end - _edata)
                0x00008000                __cs3_region_size_ram = 0x8000
                0x00000001                __cs3_region_num = 0x1

.stab
 *(.stab)

.stabstr
 *(.stabstr)

.debug
 *(.debug)

.line
 *(.line)

.debug_srcinfo
 *(.debug_srcinfo)

.debug_sfnames
 *(.debug_sfnames)

.comment        0x00000000      0x158
 .comment       0x00000000       0x2b core_cm3.o
 .comment       0x0000002b       0x2b system_LPC17xx.o
 .comment       0x00000056       0x2b main.o
 .comment       0x00000081       0x2b syscalls.o
 .comment       0x000000ac       0x2b usbhost_fat.o
 .comment       0x000000d7       0x2b usbhost_lpc17xx.o
 .comment       0x00000102       0x2b usbhost_ms.o
 .comment       0x0000012d       0x2b usbhost_uart.o

.debug_aranges  0x00000000      0x100
 *(.debug_aranges)
 .debug_aranges
                0x00000000       0x20 core_cm3.o
 .debug_aranges
                0x00000020       0x20 system_LPC17xx.o
 .debug_aranges
                0x00000040       0x20 main.o
 .debug_aranges
                0x00000060       0x20 syscalls.o
 .debug_aranges
                0x00000080       0x20 usbhost_fat.o
 .debug_aranges
                0x000000a0       0x20 usbhost_lpc17xx.o
 .debug_aranges
                0x000000c0       0x20 usbhost_ms.o
 .debug_aranges
                0x000000e0       0x20 usbhost_uart.o

.debug_pubnames
                0x00000000      0x6fe
 *(.debug_pubnames)
 .debug_pubnames
                0x00000000      0x159 core_cm3.o
 .debug_pubnames
                0x00000159       0x4f system_LPC17xx.o
 .debug_pubnames
                0x000001a8       0x46 main.o
 .debug_pubnames
                0x000001ee       0x1c syscalls.o
 .debug_pubnames
                0x0000020a      0x194 usbhost_fat.o
 .debug_pubnames
                0x0000039e      0x234 usbhost_lpc17xx.o
 .debug_pubnames
                0x000005d2       0xd7 usbhost_ms.o
 .debug_pubnames
                0x000006a9       0x55 usbhost_uart.o

.debug_info     0x00000000     0x38ab
 *(.debug_info .gnu.linkonce.wi.*)
 .debug_info    0x00000000      0x544 core_cm3.o
 .debug_info    0x00000544      0x32c system_LPC17xx.o
 .debug_info    0x00000870      0x1f2 main.o
 .debug_info    0x00000a62       0xe5 syscalls.o
 .debug_info    0x00000b47      0xae3 usbhost_fat.o
 .debug_info    0x0000162a     0x1635 usbhost_lpc17xx.o
 .debug_info    0x00002c5f      0x4da usbhost_ms.o
 .debug_info    0x00003139      0x772 usbhost_uart.o

.debug_abbrev   0x00000000      0x97f
 *(.debug_abbrev)
 .debug_abbrev  0x00000000       0xd5 core_cm3.o
 .debug_abbrev  0x000000d5       0xc2 system_LPC17xx.o
 .debug_abbrev  0x00000197       0xd0 main.o
 .debug_abbrev  0x00000267       0x91 syscalls.o
 .debug_abbrev  0x000002f8      0x168 usbhost_fat.o
 .debug_abbrev  0x00000460      0x228 usbhost_lpc17xx.o
 .debug_abbrev  0x00000688      0x182 usbhost_ms.o
 .debug_abbrev  0x0000080a      0x175 usbhost_uart.o

.debug_line     0x00000000      0xcf6
 *(.debug_line)
 .debug_line    0x00000000      0x14f core_cm3.o
 .debug_line    0x0000014f      0x12b system_LPC17xx.o
 .debug_line    0x0000027a      0x126 main.o
 .debug_line    0x000003a0       0xcd syscalls.o
 .debug_line    0x0000046d      0x2fc usbhost_fat.o
 .debug_line    0x00000769      0x237 usbhost_lpc17xx.o
 .debug_line    0x000009a0      0x1da usbhost_ms.o
 .debug_line    0x00000b7a      0x17c usbhost_uart.o

.debug_frame    0x00000000     0x125c
 *(.debug_frame)
 .debug_frame   0x00000000      0x248 core_cm3.o
 .debug_frame   0x00000248       0x40 system_LPC17xx.o
 .debug_frame   0x00000288       0x90 main.o
 .debug_frame   0x00000318       0x2c syscalls.o
 .debug_frame   0x00000344      0x2bc usbhost_fat.o
 .debug_frame   0x00000600      0x2b0 usbhost_lpc17xx.o
 .debug_frame   0x000008b0      0x154 usbhost_ms.o
 .debug_frame   0x00000a04       0x90 usbhost_uart.o
 .debug_frame   0x00000a94       0x44 g:/arquivos de programas/codesourcery/sourcery g++ lite/bin/../lib/gcc/arm-none-eabi/4.4.1/../../../../arm-none-eabi/lib/thumb2\libc.a(lib_a-vsprintf.o)
 .debug_frame   0x00000ad8       0x68 g:/arquivos de programas/codesourcery/sourcery g++ lite/bin/../lib/gcc/arm-none-eabi/4.4.1/../../../../arm-none-eabi/lib/thumb2\libc.a(lib_a-svfprintf.o)
 .debug_frame   0x00000b40       0x64 g:/arquivos de programas/codesourcery/sourcery g++ lite/bin/../lib/gcc/arm-none-eabi/4.4.1/../../../../arm-none-eabi/lib/thumb2\libc.a(lib_a-dtoa.o)
 .debug_frame   0x00000ba4       0x50 g:/arquivos de programas/codesourcery/sourcery g++ lite/bin/../lib/gcc/arm-none-eabi/4.4.1/../../../../arm-none-eabi/lib/thumb2\libc.a(lib_a-freer.o)
 .debug_frame   0x00000bf4       0x6c g:/arquivos de programas/codesourcery/sourcery g++ lite/bin/../lib/gcc/arm-none-eabi/4.4.1/../../../../arm-none-eabi/lib/thumb2\libc.a(lib_a-locale.o)
 .debug_frame   0x00000c60       0x30 g:/arquivos de programas/codesourcery/sourcery g++ lite/bin/../lib/gcc/arm-none-eabi/4.4.1/../../../../arm-none-eabi/lib/thumb2\libc.a(lib_a-malloc.o)
 .debug_frame   0x00000c90       0x3c g:/arquivos de programas/codesourcery/sourcery g++ lite/bin/../lib/gcc/arm-none-eabi/4.4.1/../../../../arm-none-eabi/lib/thumb2\libc.a(lib_a-mallocr.o)
 .debug_frame   0x00000ccc       0x28 g:/arquivos de programas/codesourcery/sourcery g++ lite/bin/../lib/gcc/arm-none-eabi/4.4.1/../../../../arm-none-eabi/lib/thumb2\libc.a(lib_a-memchr.o)
 .debug_frame   0x00000cf4       0x34 g:/arquivos de programas/codesourcery/sourcery g++ lite/bin/../lib/gcc/arm-none-eabi/4.4.1/../../../../arm-none-eabi/lib/thumb2\libc.a(lib_a-memcpy.o)
 .debug_frame   0x00000d28       0x2c g:/arquivos de programas/codesourcery/sourcery g++ lite/bin/../lib/gcc/arm-none-eabi/4.4.1/../../../../arm-none-eabi/lib/thumb2\libc.a(lib_a-memmove.o)
 .debug_frame   0x00000d54       0x30 g:/arquivos de programas/codesourcery/sourcery g++ lite/bin/../lib/gcc/arm-none-eabi/4.4.1/../../../../arm-none-eabi/lib/thumb2\libc.a(lib_a-mlock.o)
 .debug_frame   0x00000d84      0x240 g:/arquivos de programas/codesourcery/sourcery g++ lite/bin/../lib/gcc/arm-none-eabi/4.4.1/../../../../arm-none-eabi/lib/thumb2\libc.a(lib_a-mprec.o)
 .debug_frame   0x00000fc4       0x3c g:/arquivos de programas/codesourcery/sourcery g++ lite/bin/../lib/gcc/arm-none-eabi/4.4.1/../../../../arm-none-eabi/lib/thumb2\libc.a(lib_a-reallocr.o)
 .debug_frame   0x00001000       0x20 g:/arquivos de programas/codesourcery/sourcery g++ lite/bin/../lib/gcc/arm-none-eabi/4.4.1/../../../../arm-none-eabi/lib/thumb2\libc.a(lib_a-s_isinfd.o)
 .debug_frame   0x00001020       0x20 g:/arquivos de programas/codesourcery/sourcery g++ lite/bin/../lib/gcc/arm-none-eabi/4.4.1/../../../../arm-none-eabi/lib/thumb2\libc.a(lib_a-s_isnand.o)
 .debug_frame   0x00001040       0x2c g:/arquivos de programas/codesourcery/sourcery g++ lite/bin/../lib/gcc/arm-none-eabi/4.4.1/../../../../arm-none-eabi/lib/thumb2\libc.a(lib_a-sbrkr.o)
 .debug_frame   0x0000106c       0x30 g:/arquivos de programas/codesourcery/sourcery g++ lite/bin/../lib/gcc/arm-none-eabi/4.4.1/../../../../arm-none-eabi/lib/thumb2\libc.a(lib_a-strcmp.o)
 .debug_frame   0x0000109c       0x20 g:/arquivos de programas/codesourcery/sourcery g++ lite/bin/../lib/gcc/arm-none-eabi/4.4.1/../../../../arm-none-eabi/lib/thumb2\libc.a(lib_a-strlen.o)
 .debug_frame   0x000010bc       0x2c g:/arquivos de programas/codesourcery/sourcery g++ lite/bin/../lib/gcc/arm-none-eabi/4.4.1/../../../../arm-none-eabi/lib/thumb2\libc.a(lib_a-callocr.o)
 .debug_frame   0x000010e8       0x28 g:/arquivos de programas/codesourcery/sourcery g++ lite/bin/../lib/gcc/arm-none-eabi/4.4.1/../../../../arm-none-eabi/lib/thumb2\libc.a(lib_a-memset.o)
 .debug_frame   0x00001110       0x64 g:/arquivos de programas/codesourcery/sourcery g++ lite/bin/../lib/gcc/arm-none-eabi/4.4.1/../../../../arm-none-eabi/lib/thumb2\libc.a(lib_a-reent.o)
 .debug_frame   0x00001174       0x20 g:/arquivos de programas/codesourcery/sourcery g++ lite/bin/../lib/gcc/arm-none-eabi/4.4.1/thumb2\libgcc.a(_udivsi3.o)
 .debug_frame   0x00001194       0x50 g:/arquivos de programas/codesourcery/sourcery g++ lite/bin/../lib/gcc/arm-none-eabi/4.4.1/thumb2\libgcc.a(bpabi.o)
 .debug_frame   0x000011e4       0x3c g:/arquivos de programas/codesourcery/sourcery g++ lite/bin/../lib/gcc/arm-none-eabi/4.4.1/thumb2\libgcc.a(_divdi3.o)
 .debug_frame   0x00001220       0x3c g:/arquivos de programas/codesourcery/sourcery g++ lite/bin/../lib/gcc/arm-none-eabi/4.4.1/thumb2\libgcc.a(_udivdi3.o)

.debug_str      0x00000000     0x130b
 *(.debug_str)
 .debug_str     0x00000000      0x1d8 core_cm3.o
                                0x222 (size before relaxing)
 .debug_str     0x000001d8      0x171 system_LPC17xx.o
                                0x22e (size before relaxing)
 .debug_str     0x00000349       0x66 main.o
                                0x15e (size before relaxing)
 .debug_str     0x000003af       0x35 syscalls.o
                                 0xf3 (size before relaxing)
 .debug_str     0x000003e4      0x3a6 usbhost_fat.o
                                0x4fd (size before relaxing)
 .debug_str     0x0000078a      0x986 usbhost_lpc17xx.o
                                0xbd4 (size before relaxing)
 .debug_str     0x00001110      0x173 usbhost_ms.o
                                0x2c7 (size before relaxing)
 .debug_str     0x00001283       0x88 usbhost_uart.o
                                0x389 (size before relaxing)

.debug_loc      0x00000000     0x11f4
 *(.debug_loc)
 .debug_loc     0x00000000      0x3de core_cm3.o
 .debug_loc     0x000003de       0x56 system_LPC17xx.o
 .debug_loc     0x00000434       0xdc main.o
 .debug_loc     0x00000510       0x37 syscalls.o
 .debug_loc     0x00000547      0x4ba usbhost_fat.o
 .debug_loc     0x00000a01      0x4e5 usbhost_lpc17xx.o
 .debug_loc     0x00000ee6      0x226 usbhost_ms.o
 .debug_loc     0x0000110c       0xe8 usbhost_uart.o

.debug_macinfo
 *(.debug_macinfo)

.debug_weaknames
 *(.debug_weaknames)

.debug_funcnames
 *(.debug_funcnames)

.debug_typenames
 *(.debug_typenames)

.debug_varnames
 *(.debug_varnames)

.note.gnu.arm.ident
 *(.note.gnu.arm.ident)

.ARM.attributes
                0x00000000       0x2d
 *(.ARM.attributes)
 .ARM.attributes
                0x00000000       0x21 startup_LPC17xx.o
 .ARM.attributes
                0x00000021       0x31 core_cm3.o
 .ARM.attributes
                0x00000052       0x31 system_LPC17xx.o
 .ARM.attributes
                0x00000083       0x31 main.o
 .ARM.attributes
                0x000000b4       0x31 syscalls.o
 .ARM.attributes
                0x000000e5       0x31 usbhost_fat.o
 .ARM.attributes
                0x00000116       0x31 usbhost_lpc17xx.o
 .ARM.attributes
                0x00000147       0x31 usbhost_ms.o
 .ARM.attributes
                0x00000178       0x31 usbhost_uart.o
 .ARM.attributes
                0x000001a9       0x29 g:/arquivos de programas/codesourcery/sourcery g++ lite/bin/../lib/gcc/arm-none-eabi/4.4.1/../../../../arm-none-eabi/lib/thumb2\libc.a(lib_a-vsprintf.o)
 .ARM.attributes
                0x000001d2       0x29 g:/arquivos de programas/codesourcery/sourcery g++ lite/bin/../lib/gcc/arm-none-eabi/4.4.1/../../../../arm-none-eabi/lib/thumb2\libc.a(lib_a-impure.o)
 .ARM.attributes
                0x000001fb       0x29 g:/arquivos de programas/codesourcery/sourcery g++ lite/bin/../lib/gcc/arm-none-eabi/4.4.1/../../../../arm-none-eabi/lib/thumb2\libc.a(lib_a-svfprintf.o)
 .ARM.attributes
                0x00000224       0x29 g:/arquivos de programas/codesourcery/sourcery g++ lite/bin/../lib/gcc/arm-none-eabi/4.4.1/../../../../arm-none-eabi/lib/thumb2\libc.a(lib_a-dtoa.o)
 .ARM.attributes
                0x0000024d       0x29 g:/arquivos de programas/codesourcery/sourcery g++ lite/bin/../lib/gcc/arm-none-eabi/4.4.1/../../../../arm-none-eabi/lib/thumb2\libc.a(lib_a-freer.o)
 .ARM.attributes
                0x00000276       0x29 g:/arquivos de programas/codesourcery/sourcery g++ lite/bin/../lib/gcc/arm-none-eabi/4.4.1/../../../../arm-none-eabi/lib/thumb2\libc.a(lib_a-locale.o)
 .ARM.attributes
                0x0000029f       0x29 g:/arquivos de programas/codesourcery/sourcery g++ lite/bin/../lib/gcc/arm-none-eabi/4.4.1/../../../../arm-none-eabi/lib/thumb2\libc.a(lib_a-malloc.o)
 .ARM.attributes
                0x000002c8       0x29 g:/arquivos de programas/codesourcery/sourcery g++ lite/bin/../lib/gcc/arm-none-eabi/4.4.1/../../../../arm-none-eabi/lib/thumb2\libc.a(lib_a-mallocr.o)
 .ARM.attributes
                0x000002f1       0x29 g:/arquivos de programas/codesourcery/sourcery g++ lite/bin/../lib/gcc/arm-none-eabi/4.4.1/../../../../arm-none-eabi/lib/thumb2\libc.a(lib_a-memchr.o)
 .ARM.attributes
                0x0000031a       0x29 g:/arquivos de programas/codesourcery/sourcery g++ lite/bin/../lib/gcc/arm-none-eabi/4.4.1/../../../../arm-none-eabi/lib/thumb2\libc.a(lib_a-memcpy.o)
 .ARM.attributes
                0x00000343       0x29 g:/arquivos de programas/codesourcery/sourcery g++ lite/bin/../lib/gcc/arm-none-eabi/4.4.1/../../../../arm-none-eabi/lib/thumb2\libc.a(lib_a-memmove.o)
 .ARM.attributes
                0x0000036c       0x29 g:/arquivos de programas/codesourcery/sourcery g++ lite/bin/../lib/gcc/arm-none-eabi/4.4.1/../../../../arm-none-eabi/lib/thumb2\libc.a(lib_a-mlock.o)
 .ARM.attributes
                0x00000395       0x29 g:/arquivos de programas/codesourcery/sourcery g++ lite/bin/../lib/gcc/arm-none-eabi/4.4.1/../../../../arm-none-eabi/lib/thumb2\libc.a(lib_a-mprec.o)
 .ARM.attributes
                0x000003be       0x29 g:/arquivos de programas/codesourcery/sourcery g++ lite/bin/../lib/gcc/arm-none-eabi/4.4.1/../../../../arm-none-eabi/lib/thumb2\libc.a(lib_a-reallocr.o)
 .ARM.attributes
                0x000003e7       0x29 g:/arquivos de programas/codesourcery/sourcery g++ lite/bin/../lib/gcc/arm-none-eabi/4.4.1/../../../../arm-none-eabi/lib/thumb2\libc.a(lib_a-s_isinfd.o)
 .ARM.attributes
                0x00000410       0x29 g:/arquivos de programas/codesourcery/sourcery g++ lite/bin/../lib/gcc/arm-none-eabi/4.4.1/../../../../arm-none-eabi/lib/thumb2\libc.a(lib_a-s_isnand.o)
 .ARM.attributes
                0x00000439       0x29 g:/arquivos de programas/codesourcery/sourcery g++ lite/bin/../lib/gcc/arm-none-eabi/4.4.1/../../../../arm-none-eabi/lib/thumb2\libc.a(lib_a-sbrkr.o)
 .ARM.attributes
                0x00000462       0x29 g:/arquivos de programas/codesourcery/sourcery g++ lite/bin/../lib/gcc/arm-none-eabi/4.4.1/../../../../arm-none-eabi/lib/thumb2\libc.a(lib_a-strcmp.o)
 .ARM.attributes
                0x0000048b       0x29 g:/arquivos de programas/codesourcery/sourcery g++ lite/bin/../lib/gcc/arm-none-eabi/4.4.1/../../../../arm-none-eabi/lib/thumb2\libc.a(lib_a-strlen.o)
 .ARM.attributes
                0x000004b4       0x29 g:/arquivos de programas/codesourcery/sourcery g++ lite/bin/../lib/gcc/arm-none-eabi/4.4.1/../../../../arm-none-eabi/lib/thumb2\libc.a(lib_a-callocr.o)
 .ARM.attributes
                0x000004dd       0x29 g:/arquivos de programas/codesourcery/sourcery g++ lite/bin/../lib/gcc/arm-none-eabi/4.4.1/../../../../arm-none-eabi/lib/thumb2\libc.a(lib_a-memset.o)
 .ARM.attributes
                0x00000506       0x29 g:/arquivos de programas/codesourcery/sourcery g++ lite/bin/../lib/gcc/arm-none-eabi/4.4.1/../../../../arm-none-eabi/lib/thumb2\libc.a(lib_a-reent.o)
 .ARM.attributes
                0x0000052f       0x1b g:/arquivos de programas/codesourcery/sourcery g++ lite/bin/../lib/gcc/arm-none-eabi/4.4.1/thumb2\libgcc.a(_udivsi3.o)
 .ARM.attributes
                0x0000054a       0x1b g:/arquivos de programas/codesourcery/sourcery g++ lite/bin/../lib/gcc/arm-none-eabi/4.4.1/thumb2\libgcc.a(_dvmd_tls.o)
 .ARM.attributes
                0x00000565       0x1b g:/arquivos de programas/codesourcery/sourcery g++ lite/bin/../lib/gcc/arm-none-eabi/4.4.1/thumb2\libgcc.a(_arm_addsubdf3.o)
 .ARM.attributes
                0x00000580       0x1b g:/arquivos de programas/codesourcery/sourcery g++ lite/bin/../lib/gcc/arm-none-eabi/4.4.1/thumb2\libgcc.a(_arm_muldivdf3.o)
 .ARM.attributes
                0x0000059b       0x1b g:/arquivos de programas/codesourcery/sourcery g++ lite/bin/../lib/gcc/arm-none-eabi/4.4.1/thumb2\libgcc.a(_arm_cmpdf2.o)
 .ARM.attributes
                0x000005b6       0x1b g:/arquivos de programas/codesourcery/sourcery g++ lite/bin/../lib/gcc/arm-none-eabi/4.4.1/thumb2\libgcc.a(_arm_fixdfsi.o)
 .ARM.attributes
                0x000005d1       0x1b g:/arquivos de programas/codesourcery/sourcery g++ lite/bin/../lib/gcc/arm-none-eabi/4.4.1/thumb2\libgcc.a(_aeabi_uldivmod.o)
 .ARM.attributes
                0x000005ec       0x29 g:/arquivos de programas/codesourcery/sourcery g++ lite/bin/../lib/gcc/arm-none-eabi/4.4.1/thumb2\libgcc.a(bpabi.o)
 .ARM.attributes
                0x00000615       0x29 g:/arquivos de programas/codesourcery/sourcery g++ lite/bin/../lib/gcc/arm-none-eabi/4.4.1/thumb2\libgcc.a(_divdi3.o)
 .ARM.attributes
                0x0000063e       0x29 g:/arquivos de programas/codesourcery/sourcery g++ lite/bin/../lib/gcc/arm-none-eabi/4.4.1/thumb2\libgcc.a(_udivdi3.o)

/DISCARD/
 *(.note.GNU-stack)
OUTPUT(main.elf elf32-littlearm)
