:1000000000800010C5000000D5000000D7000000EF
:10001000D9000000DB000000DD000000000000004F
:10002000000000000000000000000000DF000000F1
:10003000E100000000000000E3000000E500000017
:10004000E7000000E7000000E7000000E700000014
:10005000E7000000E7000000E7000000E700000004
:10006000E7000000E7000000E7000000E7000000F4
:10007000E7000000E7000000E7000000E7000000E4
:10008000E7000000E7000000E7000000E7000000D4
:10009000E7000000E7000000E7000000E7000000C4
:1000A000E7000000E7000000E7000000E7000000B4
:1000B000E7000000E7000000E7000000E7000000A4
:1000C000E700000001488047014800479D05000007
:1000D00021100000FEE7FEE7FEE7FEE7FEE7FEE791
:1000E000FEE7FEE7FEE7FEE74FF00004EFF30984CA
:1000F0002046704723461846034683F30988704715
:100100004FF00004EFF3088420467047234618465A
:10011000034683F30888704780B483B000AF4FF084
:1001200000037B60EFF312837B607B68184607F166
:100130000C07BD4680BC704780B483B000AF7860C8
:100140007B6883F3118807F10C07BD4680BC7047BC
:1001500080B483B000AF4FF000037B60EFF31083F7
:100160007B607B68184607F10C07BD4680BC704772
:1001700080B483B000AF78607B6883F3108807F1A8
:100180000C07BD4680BC704780B483B000AF4FF011
:1001900000037B60EFF313837B607B68184607F1F5
:1001A0000C07BD4680BC704780B483B000AF786058
:1001B0007B6883F3138807F10C07BD4680BC70474A
:1001C00080B483B000AF4FF000037B60EFF3148383
:1001D0007B607B68184607F10C07BD4680BC704702
:1001E00080B483B000AF78607B6883F3148807F134
:1001F0000C07BD4680BC704780B485B000AF786006
:100200004FF00003FB607B681BBAFB60FB6818467D
:1002100007F11407BD4680BC704700BF80B485B0AD
:1002200000AF0346FB804FF00003FB60FB885BBA26
:10023000FB60FB68184607F11407BD4680BC704799
:1002400080B485B000AF0346FB804FF00003FB6035
:10025000FB88DBBAFB60FB68184607F11407BD4654
:1002600080BC704780B485B000AF78604FF0000369
:10027000FB607B6893FAA3F3FB60FB68184607F109
:100280001407BD4680BC704780B485B000AF78606D
:100290004FF00003FB737B68D3E84F3FFB73FB7B9E
:1002A000184607F11407BD4680BC704780B485B07E
:1002B00000AF78604FF00003FB817B68D3E85F3FBD
:1002C000FB81FB89184607F11407BD4680BC7047C7
:1002D00080B485B000AF78604FF00003FB607B68AE
:1002E00053E8003FFB60FB68184607F11407BD4662
:1002F00080BC704780B485B000AF03463960FB71A5
:100300004FF00003FB603B68FA79C3E8432FFB60C2
:10031000FB68184607F11407BD4680BC704700BF54
:1003200080B485B000AF03463960FB804FF0000316
:10033000FB603B68FA88C3E8532FFB60FB681846F4
:1003400007F11407BD4680BC704700BF80B485B07C
:1003500000AF786039604FF00003FB603B687A685B
:1003600043E80023FB60FB68184607F11407BD460D
:1003700080BC704780B400AF4CF20003C4F20F039E
:10038000D3F888304FEA136303F00303032B40F0E4
:10039000AC804CF20003C4F20F03D3F80C3103F02D
:1003A0000303032B00F2F68001A252F823F000BFF2
:1003B000C1030000250400008B040000C1030000FD
:1003C0004CF20003C4F20F03D3F888304FEA4343E2
:1003D0004FEA534303F1010241F20023C0F27A03D2
:1003E00003FB02F24CF20003C4F20F03D3F888308F
:1003F0004FEA134303F0FF0303F10103B2FBF3F2EF
:100400004CF20003C4F20F03D3F8043103F0FF03EE
:1004100003F10103B2FBF3F240F20003C1F2000367
:100420001A60B8E04CF20003C4F20F03D3F888302E
:100430004FEA43434FEA534303F1010243F200639F
:10044000C0F26E1303FB02F24CF20003C4F20F037E
:10045000D3F888304FEA134303F0FF0303F101039D
:10046000B2FBF3F24CF20003C4F20F03D3F80431F1
:1004700003F0FF0303F10103B2FBF3F240F20003C8
:10048000C1F200031A6000BF85E04CF20003C4F221
:100490000F03D3F888304FEA43434FEA534303F145
:1004A00001034FF47A4202FB03F24CF20003C4F260
:1004B0000F03D3F888304FEA134303F0FF0303F12F
:1004C0000103B2FBF3F24CF20003C4F20F03D3F8C2
:1004D000043103F0FF0303F10103B2FBF3F240F236
:1004E0000003C1F200031A6055E04CF20003C4F2AD
:1004F0000F03D3F80C3103F00303032B4BD801A2F5
:1005000052F823F015050000410500006D050000BC
:10051000150500004CF20003C4F20F03D3F80431B8
:1005200003F0FF0303F1010240F60013C0F23D03A4
:10053000B3FBF2F240F20003C1F200031A602AE0BA
:100540004CF20003C4F20F03D3F8043103F0FF03AD
:1005500003F1010241F60033C0F2B703B3FBF2F23C
:1005600040F20003C1F200031A6014E04CF20003F1
:10057000C4F20F03D3F8043103F0FF0303F10103C6
:100580004FF4FA42B2FBF3F240F20003C1F200036F
:100590001A6000E000BFBD4680BC704780B400AF69
:1005A0004CF20003C4F20F034FF02002C3F8A02165
:1005B0004CF20003C4F20F03D3F8A03103F0400360
:1005C000002BF5D04CF20003C4F20F034FF00302EE
:1005D000C3F804214CF20003C4F20F034FF00102F0
:1005E000C3F80C214CF20003C4F20F0340F2630283
:1005F000C0F20502C3F884204CF20003C4F20F03DA
:100600004FF0AA02C3F88C204CF20003C4F20F038F
:100610004FF05502C3F88C204CF20003C4F20F03D4
:100620004FF00102C3F880204CF20003C4F20F0324
:100630004FF0AA02C3F88C204CF20003C4F20F035F
:100640004FF05502C3F88C204CF20003C4F20F03A4
:10065000D3F8883003F08063002BF5D04CF2000310
:10066000C4F20F034FF00302C3F880204CF20003E2
:10067000C4F20F034FF0AA02C3F88C204CF200031F
:10068000C4F20F034FF05502C3F88C204CF2000364
:10069000C4F20F03D3F8883003F04073002BF5D079
:1006A0004CF20003C4F20F034FF02302C3F8A4205E
:1006B0004CF20003C4F20F034FF0AA02C3F8AC20BF
:1006C0004CF20003C4F20F034FF05502C3F8AC2004
:1006D0004CF20003C4F20F034FF00102C3F8A02054
:1006E0004CF20003C4F20F034FF0AA02C3F8AC208F
:1006F0004CF20003C4F20F034FF05502C3F8AC20D4
:100700004CF20003C4F20F03D3F8A83003F4806363
:10071000002BF5D04CF20003C4F20F034FF003029C
:10072000C3F8A0204CF20003C4F20F034FF0AA025A
:10073000C3F8AC204CF20003C4F20F034FF0550293
:10074000C3F8AC204CF20003C4F20F03D3F8A83076
:1007500003F44073002BF5D04CF20003C4F20F03F6
:100760004FF00002C3F8A8214CF20003C4F20F03BB
:100770004FF00002C3F8AC214CF20003C4F20F03A7
:1007800048F2DE72C0F22842C3F8C4204CF20003E3
:10079000C4F20F034FF00002C3F8C8214CF200036B
:1007A000C4F20F0343F23A021A60BD4680BC7047A0
:1007B00080B485B000AF78604FF00003FB6003E0C9
:1007C000FB6803F10103FB607B684FF4967202FB48
:1007D00003F2FB689A42F3DC07F11407BD4680BCC4
:1007E000704700BF80B588B000AF41F2E823C0F287
:1007F0000003BC469E46BEE80F00ACE80F009EE832
:1008000007008CE807004FF00003FB774CF2000371
:10081000C4F202034CF20002C4F20202126D42F072
:100820007C421A654CF24003C2F209034CF24002CA
:10083000C2F20902126842F480521A604CF240037C
:10084000C2F209034CF24002C2F20902126842F4F9
:1008500000521A604CF20003C2F209034CF200028B
:10086000C2F20902126842F47F621A604CF240033D
:10087000C2F209034CF24002C2F20902526922F4A8
:1008800080525A614FF00100FFF792FF41E04CF2B5
:100890000003C2F209034CF20002C2F209025269DB
:1008A00022F47F625A614CF24003C2F209034CF217
:1008B0004002C2F20902526942F400525A614CF2FB
:1008C0000003C2F209034CF20002C2F209025169AC
:1008D000FA7F4FEA820207F12000024452F8202CEE
:1008E0004FEA021241EA02025A614CF24003C2F29C
:1008F00009034CF24002C2F20902526922F400528A
:100900005A614FF00100FFF753FFFB7F03F1010332
:10091000FB77FB7F062BBAD907F12007BD4680BDC8
:1009200080B584B000AF0346FB7141F2E023C0F212
:10093000000307F1080293E8030082E803004CF289
:100940004003C2F209034CF24002C2F209025269AA
:1009500022F480525A614CF20003C2F209034CF2B5
:100960000002C2F20902526922F47F625A614CF21B
:100970004003C2F209034CF24002C2F2090252697A
:1009800042F400525A614CF20003C2F209034CF2E5
:100990000002C2F209025169FA794FEA820207F1B4
:1009A0001000024452F8082C4FEA021241EA0202F7
:1009B0005A614CF24003C2F209034CF24002C2F207
:1009C0000902526922F400525A614FF00100FFF708
:1009D000EFFE07F11007BD4680BD00BF80B582B0B5
:1009E00000AF0346FB714CF24003C2F209034CF224
:1009F0004002C2F20902526942F480525A614CF23A
:100A00000003C2F209034CF20002C2F20902526969
:100A100022F47F625A614CF24003C2F209034CF2A5
:100A20004002C2F20902526942F400525A614CF289
:100A30000003C2F209034CF20002C2F2090251693A
:100A4000FA794FEA021241EA02025A614CF240037B
:100A5000C2F209034CF24002C2F20902526922F4C6
:100A600000525A614FF00100FFF7A2FE07F108079C
:100A7000BD4680BD80B584B000AF78604FF0000304
:100A8000FB7310E0FA7B7B6813441B78002B0ED0BD
:100A9000FA7B7B6813441B781846FFF79FFFFB7BAC
:100AA00003F10103FB73FB7B0F2BEBD900E000BFCD
:100AB00007F11007BD4680BD80B400AF4CF2400383
:100AC000C2F209034CF24002C2F20902126822F09B
:100AD000FF021A604CF24003C2F209034CF24002DA
:100AE000C2F20902126842F00F021A604CF20003CF
:100AF000C4F202034CF20002C4F20202126D6FEA69
:100B000012426FEA02421A65BD4680BC704700BFC0
:100B100080B487B000AF41F2D023C0F2000307F1E8
:100B2000040C0FCB8CE80F004FF0FF33BB754FF078
:100B30000003FB754CF24003C2F209034CF2400281
:100B4000C2F20902526942F001025A614CF24003BA
:100B5000C2F209034CF24002C2F20902526942F0A9
:100B600001025A614CF24003C2F209035B6903F0CF
:100B70001003002B05D04FF00103FB757B79BB758B
:100B80002BE04CF24003C2F209035B6903F020033F
:100B9000002B05D04FF00103FB753B7ABB751CE0C1
:100BA0004CF24003C2F209035B6903F04003002BDF
:100BB00005D04FF00103FB75FB7ABB750DE04CF2DD
:100BC0004003C2F209035B6903F08003002B04D0E9
:100BD0004FF00103FB75BB7CBB754CF24003C2F2C6
:100BE00009034CF24002C2F20902526922F00102EA
:100BF0005A61FB7D002B01D0BB7D32E14CF24003FA
:100C0000C2F209034CF24002C2F20902526942F0F8
:100C100002025A614CF24003C2F209034CF2400254
:100C2000C2F20902526942F002025A614CF24003D8
:100C3000C2F209035B6903F01003002B05D04FF0EB
:100C40000103FB75BB79BB752BE04CF24003C2F28C
:100C500009035B6903F02003002B05D04FF001036B
:100C6000FB757B7ABB751CE04CF24003C2F20903B2
:100C70005B6903F04003002B05D04FF00103FB75C7
:100C80003B7BBB750DE04CF24003C2F209035B698C
:100C900003F08003002B04D04FF00103FB753B7978
:100CA000BB754CF24003C2F209034CF24002C2F29F
:100CB0000902526922F002025A61FB7D002B01D029
:100CC000BB7DCEE04CF24003C2F209034CF240027D
:100CD000C2F20902526942F004025A614CF2400326
:100CE000C2F209034CF24002C2F20902526942F018
:100CF00004025A614CF24003C2F209031B7DDBB2CD
:100D000003F01003002B05D04FF00103FB75FB79B6
:100D1000BB752DE04CF24003C2F209031B7DDBB230
:100D200003F02003002B05D04FF00103FB75BB7AC5
:100D3000BB751DE04CF24003C2F209031B7DDBB220
:100D400003F04003002B05D04FF00103FB757B7BC4
:100D5000BB750DE04CF24003C2F209031B7DDBB210
:100D60005BB2002B04DA4FF00103FB75FB7CBB7513
:100D70004CF24003C2F209034CF24002C2F20902F3
:100D8000526922F004025A61FB7D002B01D0BB7D29
:100D900067E04CF24003C2F209034CF24002C2F297
:100DA0000902526942F008025A614CF24003C2F251
:100DB00009034CF24002C2F20902526942F00802F1
:100DC0005A614CF24003C2F209031B7DDBB203F00F
:100DD0001003002B05D04FF00103FB75BB7BBB75E7
:100DE0002DE04CF24003C2F209031B7DDBB203F09D
:100DF0002003002B05D04FF00103FB75FB7BBB7577
:100E00001DE04CF24003C2F209031B7DDBB203F08C
:100E10004003002B05D04FF00103FB753B7CBB75F5
:100E20000DE04CF24003C2F209031B7DDBB25BB262
:100E3000002B04DA4FF00103FB757B7CBB754CF291
:100E40004003C2F209034CF24002C2F209025269A5
:100E500022F008025A61FB7D002B01D0BB7D00E02F
:100E6000BB7D184607F11C07BD4680BC704700BF1C
:100E700080B400AF4CF20003C4F20F034CF2000246
:100E8000C4F20F02D2F8C42042F48072C3F8C42026
:100E90004CF20003C4F20F034CF20002C4F20F0242
:100EA000D2F8C42022F01002C3F8C4204CF2000390
:100EB000C4F20F034CF20002C4F20F02D2F8C420B5
:100EC00022F40012C3F8C4204CF20003C4F20F0352
:100ED0004CF20002C4F20F02D2F8A82122F48032B0
:100EE000C3F8A8214CF20003C4F20F034CF2000235
:100EF000C4F20F02D2F8A82122F40032C3F8A821CC
:100F000040F20003C4F202034FF01902DA604CF21F
:100F10000003C4F202034CF20002C4F2020212689F
:100F200042F040421A604CF20003C4F202034CF259
:100F30000002C4F20202526842F030025A6040F2EB
:100F40000003C4F202034FF024021A604CF20003C3
:100F5000C4F202034CF20002C4F20202526C42F0EC
:100F600002025A644CF20003C2F209034CF200027E
:100F7000C2F20902126842F480321A60BD4680BC97
:100F8000704700BF80B483B000AF0346FB714CF2E2
:100F90000003C2F209034CF20002C2F209025269D4
:100FA00022F480325A6140F20003C4F20203FA795B
:100FB00042F498529A6040F20003C4F202035B6864
:100FC00003F08003002BF6D04CF20003C2F20903B9
:100FD0004CF20002C2F20902526942F480325A61B4
:100FE00007F10C07BD4680BC704700BF80B485B0D8
:100FF00000AF78604FF00003FB6003E0FB6803F193
:101000000103FB607B6840F6B83202FB03F2FB6829
:101010009A42F3DC07F11407BD4680BC704700BF5D
:1010200080B584B000AFFFF7B9FAFFF7DBFBFFF73D
:101030001FFFFFF741FD4CF20003C4F20F034CF217
:101040000002C4F20F02D2F8C42042F48052C3F866
:10105000C4204CF20003C4F20F034CF20002C4F2AD
:101060000F02D2F8A82122F04072C3F8A8214CF256
:101070000003C4F20F034CF20002C4F20F02D2F8D4
:10108000A82142F04072C3F8A8214CF20003C4F238
:1010900002034CF20002C4F20202D26822F0404283
:1010A000DA604CF20003C4F202034CF20002C4F214
:1010B0000202D26842F04042DA60FFF729FD03469F
:1010C000BB73BB7B012B03D1FB7B03F10103FB73E0
:1010D000BB7B022B03D1FB7B03F1FF33FB73FB7B59
:1010E0001846FFF74FFF4FF06400FFF77FFF44F211
:1010F0000003C4F2030340F22002C0F220121A607F
:1011000044F20003C4F203035B687B607B68002B3E
:10111000F6DA44F20003C4F2030344F20002C4F21C
:101120000302126822F0907222F020021A607B689B
:101130004FEA23134FEA03534FEA13537B607B6854
:10114000BB60BB6840F6E44202FB03F303F57E623A
:1011500002F11F02002BB8BF13464FEA2333BB60D6
:10116000BA6844F6D353C1F2620383FB02134FEA19
:10117000A3114FEAE273C3EB0103DBB203F13003C7
:10118000DBB23B70BB6844F6D352C1F2620282FB11
:1011900003124FEAA2114FEAE372C2EB01024FF4CD
:1011A0007A7101FB02F2C2EB0303BB604FF02C0328
:1011B0007B70BA6848F21F53C5F2EB1383FB02132E
:1011C0004FEA63114FEAE273C3EB0103DBB203F1B1
:1011D0003003DBB2BB70BB6848F21F52C5F2EB12A2
:1011E00082FB03124FEA62114FEAE372C2EB010283
:1011F0004FF0640101FB02F2C2EB0303BB60BA686B
:1012000046F26763C6F2666383FB02134FEAA301EB
:101210004FEAE273C3EB0103DBB203F13003DBB24D
:10122000FB70B96846F26763C6F2666383FB01230D
:101230004FEAA3024FEAE173C3EB020213464FEAFF
:10124000830313444FEA4303C3EB0102D3B203F118
:101250003003DBB23B714FF00000FFF761FB41F25E
:10126000B820C0F20000FFF705FC4FF03500FFF793
:10127000B5FB4FF00100FFF753FB41F2CC20C0F269
:101280000000FFF7F7FB3B781846FFF7A7FB4FF08E
:101290002C00FFF7A3FBBB781846FFF79FFBFB78FA
:1012A0001846FFF79BFB3B791846FFF797FB4FF07B
:1012B0005600FFF793FB00E754656E73616F205093
:1012C0006F74656E632E204400000000563A2000C3
:1012D000000102030405060708090A0B0C0D0E0F96
:1012E00080000000C000000030000000300000005E
:1012F00030000000380000000E0000000600000072
:101300000100000000000000201300000000001099
:081310000800000000000000CD
:08131800ACEDFF7F01000000B5
:0813200000E1F50500000000EA
:0400000300001021C8
:00000001FF
