
Memory Configuration

Name             Origin             Length             Attributes
rom              0x00000000         0x00080000         xr
ram              0x10000000         0x00008000         xrw
*default*        0x00000000         0xffffffff

Linker script and memory map

LOAD startup_LPC17xx.o
LOAD core_cm3.o
LOAD system_LPC17xx.o
LOAD main.o
START GROUP
LOAD g:/arquivos de programas/codesourcery/sourcery g++ lite/bin/../lib/gcc/arm-none-eabi/4.4.1/thumb2\libgcc.a
LOAD g:/arquivos de programas/codesourcery/sourcery g++ lite/bin/../lib/gcc/arm-none-eabi/4.4.1/../../../../arm-none-eabi/lib/thumb2\libc.a
END GROUP
                0x10008000                PROVIDE (__cs3_stack, (__cs3_region_start_ram + __cs3_region_size_ram))
                0x00007ff8                PROVIDE (__cs3_stack_size, ((__cs3_region_start_ram + __cs3_region_size_ram) - _end))
                0x10000008                PROVIDE (__cs3_heap_start, _end)
                0x10008000                PROVIDE (__cs3_heap_end, (__cs3_region_start_ram + __cs3_region_size_ram))

.text           0x00000000      0xa0c
 CREATE_OBJECT_SYMBOLS
                0x00000000                __cs3_region_start_rom = .
 *(.cs3.region-head.rom)
                0x00000000                __cs3_interrupt_vector = __cs3_interrupt_vector_cortex_m
 *(.cs3.interrupt_vector)
 .cs3.interrupt_vector
                0x00000000       0xc4 startup_LPC17xx.o
                0x00000000                __cs3_interrupt_vector_cortex_m
                0x00000001                ASSERT ((. != __cs3_interrupt_vector_cortex_m), No interrupt vector)
 *(.rom)
 *(.rom.b)
                0x000000c4                __cs3_reset = __cs3_reset_cortex_m
 *(.cs3.reset)
 .cs3.reset     0x000000c4       0x10 startup_LPC17xx.o
                0x000000c4                __cs3_reset_cortex_m
                0x00000001                ASSERT ((. != __cs3_reset), No reset code)
 *(.text .text.* .gnu.linkonce.t.*)
 .text          0x000000d4       0x14 startup_LPC17xx.o
                0x000000d4                NMI_Handler
                0x000000d6                HardFault_Handler
                0x000000d8                MemManage_Handler
                0x000000da                BusFault_Handler
                0x000000dc                UsageFault_Handler
                0x000000de                SVC_Handler
                0x000000e0                DebugMon_Handler
                0x000000e2                PendSV_Handler
                0x000000e4                SysTick_Handler
                0x000000e6                I2C1_IRQHandler
                0x000000e6                EINT2_IRQHandler
                0x000000e6                UART1_IRQHandler
                0x000000e6                EINT3_IRQHandler
                0x000000e6                TIMER3_IRQHandler
                0x000000e6                UART0_IRQHandler
                0x000000e6                I2C0_IRQHandler
                0x000000e6                PLL0_IRQHandler
                0x000000e6                CAN_IRQHandler
                0x000000e6                RIT_IRQHandler
                0x000000e6                SSP0_IRQHandler
                0x000000e6                I2S_IRQHandler
                0x000000e6                I2C2_IRQHandler
                0x000000e6                RTC_IRQHandler
                0x000000e6                TIMER0_IRQHandler
                0x000000e6                SPI_IRQHandler
                0x000000e6                EINT1_IRQHandler
                0x000000e6                TIMER1_IRQHandler
                0x000000e6                UART2_IRQHandler
                0x000000e6                Default_Handler
                0x000000e6                ADC_IRQHandler
                0x000000e6                SSP1_IRQHandler
                0x000000e6                USB_IRQHandler
                0x000000e6                BOD_IRQHandler
                0x000000e6                PWM1_IRQHandler
                0x000000e6                WDT_IRQHandler
                0x000000e6                PLL1_IRQHandler
                0x000000e6                QEI_IRQHandler
                0x000000e6                EINT0_IRQHandler
                0x000000e6                DMA_IRQHandler
                0x000000e6                TIMER2_IRQHandler
                0x000000e6                UART3_IRQHandler
                0x000000e6                MCPWM_IRQHandler
                0x000000e6                ENET_IRQHandler
 .text          0x000000e8      0x28c core_cm3.o
                0x000000e8                __get_PSP
                0x000000f8                __set_PSP
                0x00000100                __get_MSP
                0x00000110                __set_MSP
                0x00000118                __get_BASEPRI
                0x00000138                __set_BASEPRI
                0x00000150                __get_PRIMASK
                0x00000170                __set_PRIMASK
                0x00000188                __get_FAULTMASK
                0x000001a8                __set_FAULTMASK
                0x000001c0                __get_CONTROL
                0x000001e0                __set_CONTROL
                0x000001f8                __REV
                0x0000021c                __REV16
                0x00000240                __REVSH
                0x00000264                __RBIT
                0x00000288                __LDREXB
                0x000002ac                __LDREXH
                0x000002d0                __LDREXW
                0x000002f4                __STREXB
                0x00000320                __STREXH
                0x0000034c                __STREXW
 .text          0x00000374      0x43c system_LPC17xx.o
                0x00000374                SystemCoreClockUpdate
                0x0000059c                SystemInit
 .text          0x000007b0      0x248 main.o
                0x000007b0                main
 *(.plt)
 *(.gnu.warning)
 *(.glue_7t)
 .glue_7t       0x00000000        0x0 linker stubs
 *(.glue_7)
 .glue_7        0x00000000        0x0 linker stubs
 *(.vfp11_veneer)
 .vfp11_veneer  0x00000000        0x0 linker stubs
 *(.rodata .rodata.* .gnu.linkonce.r.*)
 *(.ARM.extab* .gnu.linkonce.armextab.*)
 .ARM.extab.cs3.reset
                0x000009f8        0x0 startup_LPC17xx.o
 *(.gcc_except_table)
 *(.eh_frame_hdr)
 *(.eh_frame)
                0x000009f8                . = ALIGN (0x4)
 *(.init)
                0x000009f8                . = ALIGN (0x4)
                0x000009f8                __preinit_array_start = .
 *(.preinit_array)
                0x000009f8                __preinit_array_end = .
                0x000009f8                . = ALIGN (0x4)
                0x000009f8                __init_array_start = .
 *(SORT(.init_array.*))
 *(.init_array)
                0x000009f8                __init_array_end = .
                0x000009f8                . = ALIGN (0x4)
 *crtbegin.o(.ctors)
 *(EXCLUDE_FILE(*crtend.o) .ctors)
 *(SORT(.ctors.*))
 *crtend.o(.ctors)
                0x000009f8                . = ALIGN (0x4)
 *(.fini)
                0x000009f8                . = ALIGN (0x4)
                0x000009f8                __fini_array_start = .
 *(.fini_array)
 *(SORT(.fini_array.*))
                0x000009f8                __fini_array_end = .
 *crtbegin.o(.dtors)
 *(EXCLUDE_FILE(*crtend.o) .dtors)
 *(SORT(.dtors.*))
 *crtend.o(.dtors)
                0x000009f8                . = ALIGN (0x4)
                0x000009f8                __cs3_regions = .
                0x000009f8        0x4 LONG 0x0
                0x000009fc        0x4 LONG 0xa18 __cs3_region_init_ram
                0x00000a00        0x4 LONG 0x10000000 __cs3_region_start_ram
                0x00000a04        0x4 LONG 0x8 __cs3_region_init_size_ram
                0x00000a08        0x4 LONG 0x0 __cs3_region_zero_size_ram
                0x00000a0c                __exidx_start = .

.v4_bx          0x00000a0c        0x0
 .v4_bx         0x00000000        0x0 linker stubs

.ARM.exidx      0x00000a0c        0x8
 *(.ARM.exidx* .gnu.linkonce.armexidx.*)
 .ARM.exidx.cs3.reset
                0x00000a0c        0x8 startup_LPC17xx.o
                0x00000a14                __exidx_end = .

.text.align     0x00000a14        0x4
                0x00000a18                . = ALIGN (0x8)
 *fill*         0x00000a14        0x4 00
                0x00000a18                _etext = .
                0x00080000                __cs3_region_size_rom = 0x80000
                0x00000001                __cs3_region_num = 0x1

.data           0x10000000        0x8 load address 0x00000a18
                0x10000000                __cs3_region_start_ram = .
 *(.cs3.region-head.ram)
 *(.jcr)
 *(.got.plt)
 *(.got)
 *(.shdata)
 *(.data .data.* .gnu.linkonce.d.*)
 .data          0x10000000        0x0 startup_LPC17xx.o
 .data          0x10000000        0x0 core_cm3.o
 .data          0x10000000        0x4 system_LPC17xx.o
                0x10000000                SystemCoreClock
 .data          0x10000004        0x0 main.o
 *(.ram)
                0x10000008                . = ALIGN (0x8)
 *fill*         0x10000004        0x4 00
                0x10000008                _edata = .

.bss            0x10000008        0x0 load address 0x00000a20
 *(.shbss)
 *(.bss .bss.* .gnu.linkonce.b.*)
 .bss           0x10000008        0x0 startup_LPC17xx.o
 .bss           0x10000008        0x0 core_cm3.o
 .bss           0x10000008        0x0 system_LPC17xx.o
 .bss           0x10000008        0x0 main.o
 *(COMMON)
 *(.ram.b)
                0x10000008                . = ALIGN (0x8)
                0x10000008                _end = .
                0x10000008                __end = .

.heap           0x10000008     0x1000 load address 0x00000a20
 *(.heap)
 .heap          0x10000008     0x1000 startup_LPC17xx.o
                0x10000008                __cs3_heap_start
                0x10001008                __cs3_heap_end

.stack          0x10007f00      0x100 load address 0x00000a20
 *(.stack)
 .stack         0x10007f00      0x100 startup_LPC17xx.o
                0x10007f00                __cs3_stack_mem
                0x00000a18                __cs3_region_init_ram = LOADADDR (.data)
                0x00000008                __cs3_region_init_size_ram = (_edata - __cs3_region_start_ram)
                0x00000000                __cs3_region_zero_size_ram = (_end - _edata)
                0x00008000                __cs3_region_size_ram = 0x8000
                0x00000001                __cs3_region_num = 0x1

.stab
 *(.stab)

.stabstr
 *(.stabstr)

.debug
 *(.debug)

.line
 *(.line)

.debug_srcinfo
 *(.debug_srcinfo)

.debug_sfnames
 *(.debug_sfnames)

.comment        0x00000000       0x81
 .comment       0x00000000       0x2b core_cm3.o
 .comment       0x0000002b       0x2b system_LPC17xx.o
 .comment       0x00000056       0x2b main.o

.debug_aranges  0x00000000       0x60
 *(.debug_aranges)
 .debug_aranges
                0x00000000       0x20 core_cm3.o
 .debug_aranges
                0x00000020       0x20 system_LPC17xx.o
 .debug_aranges
                0x00000040       0x20 main.o

.debug_pubnames
                0x00000000      0x1c3
 *(.debug_pubnames)
 .debug_pubnames
                0x00000000      0x159 core_cm3.o
 .debug_pubnames
                0x00000159       0x4f system_LPC17xx.o
 .debug_pubnames
                0x000001a8       0x1b main.o

.debug_info     0x00000000      0xc1e
 *(.debug_info .gnu.linkonce.wi.*)
 .debug_info    0x00000000      0x544 core_cm3.o
 .debug_info    0x00000544      0x32c system_LPC17xx.o
 .debug_info    0x00000870      0x3ae main.o

.debug_abbrev   0x00000000      0x25e
 *(.debug_abbrev)
 .debug_abbrev  0x00000000       0xd5 core_cm3.o
 .debug_abbrev  0x000000d5       0xc2 system_LPC17xx.o
 .debug_abbrev  0x00000197       0xc7 main.o

.debug_line     0x00000000      0x371
 *(.debug_line)
 .debug_line    0x00000000      0x14f core_cm3.o
 .debug_line    0x0000014f      0x12b system_LPC17xx.o
 .debug_line    0x0000027a       0xf7 main.o

.debug_frame    0x00000000      0x2b4
 *(.debug_frame)
 .debug_frame   0x00000000      0x248 core_cm3.o
 .debug_frame   0x00000248       0x40 system_LPC17xx.o
 .debug_frame   0x00000288       0x2c main.o

.debug_str      0x00000000      0x474
 *(.debug_str)
 .debug_str     0x00000000      0x1dd core_cm3.o
                                0x221 (size before relaxing)
 .debug_str     0x000001dd      0x171 system_LPC17xx.o
                                0x22d (size before relaxing)
 .debug_str     0x0000034e      0x126 main.o
                                0x20a (size before relaxing)

.debug_loc      0x00000000      0x45f
 *(.debug_loc)
 .debug_loc     0x00000000      0x3de core_cm3.o
 .debug_loc     0x000003de       0x56 system_LPC17xx.o
 .debug_loc     0x00000434       0x2b main.o

.debug_macinfo
 *(.debug_macinfo)

.debug_weaknames
 *(.debug_weaknames)

.debug_funcnames
 *(.debug_funcnames)

.debug_typenames
 *(.debug_typenames)

.debug_varnames
 *(.debug_varnames)

.note.gnu.arm.ident
 *(.note.gnu.arm.ident)

.ARM.attributes
                0x00000000       0x2d
 *(.ARM.attributes)
 .ARM.attributes
                0x00000000       0x21 startup_LPC17xx.o
 .ARM.attributes
                0x00000021       0x31 core_cm3.o
 .ARM.attributes
                0x00000052       0x31 system_LPC17xx.o
 .ARM.attributes
                0x00000083       0x31 main.o

/DISCARD/
 *(.note.GNU-stack)
OUTPUT(main.elf elf32-littlearm)
