:1000000000800010C5000000D5000000D7000000EF
:10001000D9000000DB000000DD000000000000004F
:10002000000000000000000000000000DF000000F1
:10003000E100000000000000E3000000E500000017
:10004000E7000000E7000000E7000000E700000014
:10005000E7000000E7000000E7000000E700000004
:10006000E7000000E7000000E7000000E7000000F4
:10007000E7000000E7000000E7000000E7000000E4
:10008000E7000000E7000000E7000000E7000000D4
:10009000E7000000E7000000E7000000E7000000C4
:1000A000E7000000E7000000E7000000E7000000B4
:1000B000E7000000E7000000E7000000E7000000A4
:1000C000E700000001488047014800479D05000007
:1000D00001100000FEE7FEE7FEE7FEE7FEE7FEE7B1
:1000E000FEE7FEE7FEE7FEE74FF00004EFF30984CA
:1000F0002046704723461846034683F30988704715
:100100004FF00004EFF3088420467047234618465A
:10011000034683F30888704780B483B000AF4FF084
:1001200000037B60EFF312837B607B68184607F166
:100130000C07BD4680BC704780B483B000AF7860C8
:100140007B6883F3118807F10C07BD4680BC7047BC
:1001500080B483B000AF4FF000037B60EFF31083F7
:100160007B607B68184607F10C07BD4680BC704772
:1001700080B483B000AF78607B6883F3108807F1A8
:100180000C07BD4680BC704780B483B000AF4FF011
:1001900000037B60EFF313837B607B68184607F1F5
:1001A0000C07BD4680BC704780B483B000AF786058
:1001B0007B6883F3138807F10C07BD4680BC70474A
:1001C00080B483B000AF4FF000037B60EFF3148383
:1001D0007B607B68184607F10C07BD4680BC704702
:1001E00080B483B000AF78607B6883F3148807F134
:1001F0000C07BD4680BC704780B485B000AF786006
:100200004FF00003FB607B681BBAFB60FB6818467D
:1002100007F11407BD4680BC704700BF80B485B0AD
:1002200000AF0346FB804FF00003FB60FB885BBA26
:10023000FB60FB68184607F11407BD4680BC704799
:1002400080B485B000AF0346FB804FF00003FB6035
:10025000FB88DBBAFB60FB68184607F11407BD4654
:1002600080BC704780B485B000AF78604FF0000369
:10027000FB607B6893FAA3F3FB60FB68184607F109
:100280001407BD4680BC704780B485B000AF78606D
:100290004FF00003FB737B68D3E84F3FFB73FB7B9E
:1002A000184607F11407BD4680BC704780B485B07E
:1002B00000AF78604FF00003FB817B68D3E85F3FBD
:1002C000FB81FB89184607F11407BD4680BC7047C7
:1002D00080B485B000AF78604FF00003FB607B68AE
:1002E00053E8003FFB60FB68184607F11407BD4662
:1002F00080BC704780B485B000AF03463960FB71A5
:100300004FF00003FB603B68FA79C3E8432FFB60C2
:10031000FB68184607F11407BD4680BC704700BF54
:1003200080B485B000AF03463960FB804FF0000316
:10033000FB603B68FA88C3E8532FFB60FB681846F4
:1003400007F11407BD4680BC704700BF80B485B07C
:1003500000AF786039604FF00003FB603B687A685B
:1003600043E80023FB60FB68184607F11407BD460D
:1003700080BC704780B400AF4CF20003C4F20F039E
:10038000D3F888304FEA136303F00303032B40F0E4
:10039000AC804CF20003C4F20F03D3F80C3103F02D
:1003A0000303032B00F2F68001A252F823F000BFF2
:1003B000C1030000250400008B040000C1030000FD
:1003C0004CF20003C4F20F03D3F888304FEA4343E2
:1003D0004FEA534303F1010241F20023C0F27A03D2
:1003E00003FB02F24CF20003C4F20F03D3F888308F
:1003F0004FEA134303F0FF0303F10103B2FBF3F2EF
:100400004CF20003C4F20F03D3F8043103F0FF03EE
:1004100003F10103B2FBF3F240F20003C1F2000367
:100420001A60B8E04CF20003C4F20F03D3F888302E
:100430004FEA43434FEA534303F1010243F200639F
:10044000C0F26E1303FB02F24CF20003C4F20F037E
:10045000D3F888304FEA134303F0FF0303F101039D
:10046000B2FBF3F24CF20003C4F20F03D3F80431F1
:1004700003F0FF0303F10103B2FBF3F240F20003C8
:10048000C1F200031A6000BF85E04CF20003C4F221
:100490000F03D3F888304FEA43434FEA534303F145
:1004A00001034FF47A4202FB03F24CF20003C4F260
:1004B0000F03D3F888304FEA134303F0FF0303F12F
:1004C0000103B2FBF3F24CF20003C4F20F03D3F8C2
:1004D000043103F0FF0303F10103B2FBF3F240F236
:1004E0000003C1F200031A6055E04CF20003C4F2AD
:1004F0000F03D3F80C3103F00303032B4BD801A2F5
:1005000052F823F015050000410500006D050000BC
:10051000150500004CF20003C4F20F03D3F80431B8
:1005200003F0FF0303F1010240F60013C0F23D03A4
:10053000B3FBF2F240F20003C1F200031A602AE0BA
:100540004CF20003C4F20F03D3F8043103F0FF03AD
:1005500003F1010241F60033C0F2B703B3FBF2F23C
:1005600040F20003C1F200031A6014E04CF20003F1
:10057000C4F20F03D3F8043103F0FF0303F10103C6
:100580004FF4FA42B2FBF3F240F20003C1F200036F
:100590001A6000E000BFBD4680BC704780B400AF69
:1005A0004CF20003C4F20F034FF02002C3F8A02165
:1005B0004CF20003C4F20F03D3F8A03103F0400360
:1005C000002BF5D04CF20003C4F20F034FF00302EE
:1005D000C3F804214CF20003C4F20F034FF00102F0
:1005E000C3F80C214CF20003C4F20F0340F2630283
:1005F000C0F20502C3F884204CF20003C4F20F03DA
:100600004FF0AA02C3F88C204CF20003C4F20F038F
:100610004FF05502C3F88C204CF20003C4F20F03D4
:100620004FF00102C3F880204CF20003C4F20F0324
:100630004FF0AA02C3F88C204CF20003C4F20F035F
:100640004FF05502C3F88C204CF20003C4F20F03A4
:10065000D3F8883003F08063002BF5D04CF2000310
:10066000C4F20F034FF00302C3F880204CF20003E2
:10067000C4F20F034FF0AA02C3F88C204CF200031F
:10068000C4F20F034FF05502C3F88C204CF2000364
:10069000C4F20F03D3F8883003F04073002BF5D079
:1006A0004CF20003C4F20F034FF02302C3F8A4205E
:1006B0004CF20003C4F20F034FF0AA02C3F8AC20BF
:1006C0004CF20003C4F20F034FF05502C3F8AC2004
:1006D0004CF20003C4F20F034FF00102C3F8A02054
:1006E0004CF20003C4F20F034FF0AA02C3F8AC208F
:1006F0004CF20003C4F20F034FF05502C3F8AC20D4
:100700004CF20003C4F20F03D3F8A83003F4806363
:10071000002BF5D04CF20003C4F20F034FF003029C
:10072000C3F8A0204CF20003C4F20F034FF0AA025A
:10073000C3F8AC204CF20003C4F20F034FF0550293
:10074000C3F8AC204CF20003C4F20F03D3F8A83076
:1007500003F44073002BF5D04CF20003C4F20F03F6
:100760004FF00002C3F8A8214CF20003C4F20F03BB
:100770004FF00002C3F8AC214CF20003C4F20F03A7
:1007800048F2DE72C0F22842C3F8C4204CF20003E3
:10079000C4F20F034FF00002C3F8C8214CF200036B
:1007A000C4F20F0343F23A021A60BD4680BC7047A0
:1007B00080B485B000AF78604FF00003FB6003E0C9
:1007C000FB6803F10103FB607B684FF4967202FB48
:1007D00003F2FB689A42F3DC07F11407BD4680BCC4
:1007E000704700BF80B588B000AF41F28003C0F20F
:1007F0000003BC469E46BEE80F00ACE80F009EE832
:1008000007008CE807004FF00003FB774CF2000371
:10081000C4F202034CF20002C4F20202126D42F072
:100820007C421A654CF24003C2F209034CF24002CA
:10083000C2F20902126842F480521A604CF240037C
:10084000C2F209034CF24002C2F20902126842F4F9
:1008500000521A604CF20003C2F209034CF200028B
:10086000C2F20902126842F47F621A604CF240033D
:10087000C2F209034CF24002C2F20902526922F4A8
:1008800080525A614FF00100FFF792FF41E04CF2B5
:100890000003C2F209034CF20002C2F209025269DB
:1008A00022F47F625A614CF24003C2F209034CF217
:1008B0004002C2F20902526942F400525A614CF2FB
:1008C0000003C2F209034CF20002C2F209025169AC
:1008D000FA7F4FEA820207F12000024452F8202CEE
:1008E0004FEA021241EA02025A614CF24003C2F29C
:1008F00009034CF24002C2F20902526922F400528A
:100900005A614FF00100FFF753FFFB7F03F1010332
:10091000FB77FB7F062BBAD907F12007BD4680BDC8
:1009200080B584B000AF0346FB7141F27803C0F29A
:10093000000307F1080293E8030082E803004CF289
:100940004003C2F209034CF24002C2F209025269AA
:1009500022F480525A614CF20003C2F209034CF2B5
:100960000002C2F20902526922F47F625A614CF21B
:100970004003C2F209034CF24002C2F2090252697A
:1009800042F400525A614CF20003C2F209034CF2E5
:100990000002C2F209025169FA794FEA820207F1B4
:1009A0001000024452F8082C4FEA021241EA0202F7
:1009B0005A614CF24003C2F209034CF24002C2F207
:1009C0000902526922F400525A614FF00100FFF708
:1009D000EFFE07F11007BD4680BD00BF80B582B0B5
:1009E00000AF0346FB714CF24003C2F209034CF224
:1009F0004002C2F20902526942F480525A614CF23A
:100A00000003C2F209034CF20002C2F20902526969
:100A100022F47F625A614CF24003C2F209034CF2A5
:100A20004002C2F20902526942F400525A614CF289
:100A30000003C2F209034CF20002C2F2090251693A
:100A4000FA794FEA021241EA02025A614CF240037B
:100A5000C2F209034CF24002C2F20902526922F4C6
:100A600000525A614FF00100FFF7A2FE07F108079C
:100A7000BD4680BD80B584B000AF78604FF0000304
:100A8000FB7310E0FA7B7B6813441B78002B0ED0BD
:100A9000FA7B7B6813441B781846FFF79FFFFB7BAC
:100AA00003F10103FB73FB7B0F2BEBD900E000BFCD
:100AB00007F11007BD4680BD80B485B000AF7860F7
:100AC0004FF00003FB6003E0FB6803F10103FB60F0
:100AD0007A6813464FEA830313444FEA43031A46E6
:100AE000FB689A42F0DC07F11407BD4680BC7047F2
:100AF00080B584B000AF0346FB714FF00003BB60CC
:100B00004FF00003FB734CF20003C2F209034CF2F6
:100B10000002C2F20902126842F400221A604CF28A
:100B20000003C2F209034CF20002C2F20902526948
:100B300042F400125A614CF20003C2F209034CF273
:100B40000002C2F20902526922F400425A61FB79A2
:100B500043F00103FB714FF00A00FFF7ADFF4FF0C8
:100B60000003BB6046E0FB7903F00103DBB2002B1E
:100B70000CD04CF20003C2F209034CF20002C2F2A4
:100B80000902526942F400225A610BE04CF2000360
:100B9000C2F209034CF20002C2F20902526922F4C5
:100BA00000225A61FB794FEA5303FB714FF00100B9
:100BB000FFF782FF4CF20003C2F209034CF200027D
:100BC000C2F20902526942F400425A614FF0010038
:100BD000FFF772FF4CF20003C2F209034CF200026D
:100BE000C2F20902526922F400425A61BB6803F161
:100BF0000103BB60BB68072BB5DD4CF20003C2F2FA
:100C000009034CF20002C2F20902126822F4002227
:100C10001A604FF00200FFF74FFF4FF00003BB6078
:100C200039E04FF00100FFF747FF4CF20003C2F23A
:100C300009034CF20002C2F20902526922F4004296
:100C40005A614FF00100FFF737FF4CF20003C2F288
:100C500009034CF20002C2F20902526942F4004256
:100C60005A61FB7B4FEA5303FB734CF20003C2F261
:100C700009035B6903F40023002B06D0FB7B6FEABA
:100C800043636FEA5363DBB200E0FB7BFB73BB683B
:100C900003F10103BB60BB68072BC2DD4FF0050009
:100CA000FFF70AFF4CF20003C2F209034CF2000204
:100CB000C2F20902526922F400125A614CF2000396
:100CC000C2F209034CF20002C2F20902526922F494
:100CD00000425A614CF20003C2F209034CF20002D6
:100CE000C2F20902126842F400221A604FF00100B9
:100CF000FFF7E2FEFB7B184607F11007BD4680BDFB
:100D000080B584B000AF02460B46FA71BB714FF05C
:100D10000003FB604CF20003C2F209034CF2000234
:100D2000C2F20902126842F400221A604CF2000377
:100D3000C2F209034CF20002C2F20902526942F403
:100D400000125A614CF20003C2F209034CF2000295
:100D5000C2F20902526922F400425A614FF00100C6
:100D6000FFF7AAFE4FF00003FB6046E0FB7903F0BB
:100D70000103DBB2002B0CD04CF20003C2F20903DA
:100D80004CF20002C2F20902526942F400225A6196
:100D90000BE04CF20003C2F209034CF20002C2F273
:100DA0000902526922F400225A61FB794FEA530387
:100DB000FB714FF00100FFF77FFE4CF20003C2F21F
:100DC00009034CF20002C2F20902526942F40042E5
:100DD0005A614FF00100FFF76FFE4CF20003C2F2C0
:100DE00009034CF20002C2F20902526922F40042E5
:100DF0005A61FB6803F10103FB60FB68072BB5DD5B
:100E00004FF00100FFF758FE4FF00003FB6046E093
:100E1000BB7903F00103DBB2002B0CD04CF20003D2
:100E2000C2F209034CF20002C2F20902526942F412
:100E300000225A610BE04CF20003C2F209034CF2AB
:100E40000002C2F20902526922F400225A61BB79FF
:100E50004FEA5303BB714FF00100FFF72DFE4CF238
:100E60000003C2F209034CF20002C2F20902526905
:100E700042F400425A614FF00100FFF71DFE4CF2B0
:100E80000003C2F209034CF20002C2F209025269E5
:100E900022F400425A61FB6803F10103FB60FB6826
:100EA000072BB5DD4CF20003C2F209034CF200023D
:100EB000C2F20902126822F400221A604FF0010007
:100EC000FFF7FAFD4CF20003C2F209034CF20002F4
:100ED000C2F20902526922F400125A6107F11007A6
:100EE000BD4680BD80B500AF4CF20003C4F20203E2
:100EF0004CF20002C4F20202526C42F040025A6408
:100F00004CF20003C4F202034CF20002C4F20202EB
:100F1000526C22F080025A644CF20003C4F20F03B8
:100F20004CF20002C4F20F02D2F8C42002F4704264
:100F3000C3F8C4204CF20003C4F20F034CF20002C9
:100F4000C4F20F02D2F8C42022F01002C3F8C42069
:100F50004CF20003C4F20F034CF20002C4F20F0281
:100F6000D2F8C42022F40022C3F8C4204CF20003BB
:100F7000C2F209034CF20002C2F20902126842F402
:100F800000121A604CF20003C2F209034CF2000294
:100F9000C2F20902126842F400421A604CF20003E5
:100FA000C2F209034CF20002C2F20902126822F4F2
:100FB00000221A604CF20003C2F209034CF2000254
:100FC000C2F20902526922F400125A614CF2000383
:100FD000C2F209034CF20002C2F20902526922F481
:100FE00000425A614FF08E004FF00001FFF788FE7B
:100FF0004FF080004FF00001FFF782FE80BD00BF80
:1010000080B582B000AFFFF7C9FAFFF7EBFBFFF73F
:1010100069FF4FF080004FF00101FFF771FE4FF0C4
:101020000000FFF77DFC4FF08000FFF761FD0346F5
:10103000FB7141F26C00C0F20000FFF71BFDFB7971
:101040004FEA1313DBB243F03003DBB21846FFF76D
:10105000C5FCFB79DBB203F00F0343F03003DBB2D6
:10106000DBB21846FFF7BAFCD9E700BF53656775D6
:101070006E646F733A20000080000000C000000022
:101080003000000030000000300000003800000098
:101090000E0000000600000001000000000000003B
:1010A000B810000000000010080000000000000060
:0810B00014F0FF7F01000000B5
:0810B80000E1F5050000000055
:0400000300001001E8
:00000001FF
